:1010000097210500938101A317310500130181C2C7
:1010100017850000130585A997850000938505A90C
:101020001386818463FCC5008322050023A055003C
:101030001305450093854500E3E8C5FE13858184CB
:10104000938501206378B500232005001305450032
:10105000E36CB5FEEF000001EF40002A6F000000D6
:0410600067800000A5
:10106400130101FF232481002320210117840000A0
:10107400130484A317890000130909A333098940C1
:10108400232611002322910013592940630E0900DD
:101094009304000083270400938414001304440081
:1010A400E7800700E31899FE178400001304C49F27
:1010B400178900001309499F3309894013592940AE
:1010C400630E090093040000832704009384140032
:1010D40013044400E7800700E31899FE8320C1004D
:1010E4000324810083244100032901001301010129
:1010F40067800000938741839305050003A50700DB
:101104006F004001938741839305050003A5070001
:101114006F005036130101FD232291022320210385
:101124002326110223248102232E3101232C410181
:10113400232A5101232861012326710123248101DB
:10114400232291019384B5009307600113090500DC
:1011540063E697069307000163ECB722EF00501291
:1011640093040001930780011306200097190500DA
:101174009389098AB387F90003A44700138787FF7B
:101184006300E426832744008326C40003268400E6
:1011940093F7C7FFB307F40003A747002326D6003D
:1011A40023A4C600136717001305090023A2E70050
:1011B400EF00500D130584006F00401E93F484FF6C
:1011C40063C8041C63E6B41CEF00900B9307701F04
:1011D40063F4974A93D79400638C071E1307400067
:1011E4006368F74293D764001386970313858703D4
:1011F400931636009719050093898981B386D9001F
:1012040003A44600938686FF638C860283274400EA
:101214009305F00093F7C7FF3387974063C0E50257
:10122400635207380324C400638C86008327440078
:1012340093F7C7FF33879740E3D4E5FE1306050011
:1012440003A40901170805001308087D6308041B9B
:10125400832544001307F00093F5C5FFB387954039
:101264006342F74417070500232E077B1707050081
:101274002328077B63D807409307F01F63EAB7323C
:1012840093D53500938715009397370003A549003C
:10129400B387F90083A6070093D5254013071000F0
:1012A4003317B7003367A700938587FF2326B4005D
:1012B4002324D4009705050023AEE57423A08700FA
:1012C40023A686009357264093061000B396F60093
:1012D4006360D714B3F7E60063940702939616008D
:1012E4001376C6FFB3F7E60013064600639A0700B9
:1012F40093961600B3F7E60013064600E38A07FE4A
:101304001305F00093183600B3881901938508007B
:101314001303060003A4C500639A85006F0080319F
:10132400635407320324C400638685308327440052
:1013340093F7C7FF33879740E354E5FE8326C40041
:101344000326840093E514002322B4002326D60048
:1013540023A4C600B30494009706050023A4966C46
:101364009706050023AE966A9366170023A6040128
:1013740023A4040123A2D400B307F4001305090035
:1013840023A0E700EF000070130584006F00000144
:101394009307C0002320F900130500008320C10235
:1013A4000324810283244102032901028329C10108
:1013B400032A8101832A4101032B0101832BC100EC
:1013C400032C8100832C410013010103678000007A
:1013D40093060020130600041305F0036FF09FE149
:1013E40003A4C70013062600E39E87D803A40901BB
:1013F4001708050013084862E31C04E503A7490025
:101404009357264093061000B396F600E374D7EC86
:1014140003A48900832A440093FBCAFF63E89B006A
:10142400B3879B401307F0006348F7149387C18682
:10143400138CC18283AA070003270C009307F0FFD3
:10144400330A7401B38A54016306F734B7170000F2
:101454009387F700B38AFA00B7F7FFFFB3FAFA00ED
:1014640093850A0013050900EF00C0689307F0FF95
:10147400130B05006306F52863624529938C4187A5
:1014840083A70C00B387FA0023AAF1861387070009
:101494006306AA3A83260C009307F0FF638EF63A9C
:1014A400B3074B41B387E70023AAF186137C7B0083
:1014B40063060C30330B8B41B7170000130B8B0002
:1014C400138AF7FFB30A5B019387870033F74A0156
:1014D400B3878741B387E74033FA470193050A008E
:1014E40013050900EF0000619307F0FF6300F53C6A
:1014F40033056541B30A450183A70C0017070500AE
:10150400232C675193EA1A00B307FA0023AAF18641
:1015140023225B01630634351306F00063767635C7
:101524008326440013874BFF137787FF93F6160037
:10153400B3E6E6002322D40093055000B306E4008A
:1015440023A2B60023A4B600636CE636832A4B00BC
:1015540013040B0013874186032707006374F70005
:1015640023A2F1861387818603270700637EF71879
:1015740023A4F1866F00401913E714002322E4002A
:10158400B3049400170705002328974893E717002E
:101594001305090023A2F400EF00C04E13058400D4
:1015A4006FF0DFDF8326C400032684006FF09FBE44
:1015B40093D79500130740006378F712130740018F
:1015C4006368F7229386C7051387B7059396360099
:1015D400B386D90083A70600938686FF6380F61C32
:1015E40003A747001377C7FF63F6E50083A78700C7
:1015F400E398F6FE83A6C70003A749002326D40078
:101604002324F40023A4860023A687006FF09FCB35
:1016140013074001637CF710130740056368F71E46
:1016240093D7C4001386F7061385E706931636008E
:101634006FF05FBC13031300937733009385850029
:10164400E39A07CC6F004010B307F40003A74700E8
:101654008326C400032684001367170023A2E7002F
:101664002326D6001305090023A4C600EF008041F9
:10167400130584006FF09FD213D63400938784003F
:101684006FF0DFAEB305B40083A74500130509006E
:1016940093E7170023A2F500EF00C03E1305840072
:1016A4006FF0DFCF13E714002322E400B3049400A7
:1016B40017070500232897361707050023229736B6
:1016C40013E7170023A6040123A4040123A2E400C2
:1016D400B305B4001305090023A0F500EF00803A18
:1016E400130584006FF09FCB93D76500938697030F
:1016F40013878703939636006FF09FED63063413C8
:1017040003A48900832A440093FACAFFB3879A404A
:1017140063E69A001307F000E340F7E613050900B7
:10172400EF004036130500006FF05FC71386C7054E
:101734001385B705931636006FF0DFAB83A78800D7
:101744001306F6FF6398171D93773600938888FF76
:10175400E39607FE03A7490093C7F6FFB3F7E70034
:10176400170705002328F72A93961600E3E2D7CA41
:10177400E38006CA33F7F600631A0700939616004F
:1017840033F7F60013034300E30A07FE13060300CE
:101794006FF05FB7938A0A016FF09FCC03A54900ED
:1017A40093552740130710003317B7003367A7007A
:1017B4009705050023A0E5266FF05FE4B717000046
:1017C4001387F7FF330A5B01337AEA00B387474193
:1017D40033FAE70093050A0013050900EF0080318E
:1017E4009307F0FFE316F5D0130A00006FF0DFD083
:1017F400130740056360F70893D7C5009386F7067F
:101804001387E706939636006FF09FDC13074015A5
:101814006360F70893D7F400138687071385770767
:10182400931636006FF01F9D938C418783A70C009D
:101834003387FA0023AAE1866FF0DFC593164A01C5
:10184400E39A06C403A48900B38A5B0193EA1A00ED
:10185400232254016FF01FD023A661836FF01FC5AC
:1018640013040B006FF01FCF930710002322FB001B
:101874006FF0DFEA130740156362F70693D7F500AC
:101884009386870713877707939636006FF05FD4A4
:10189400130740556362F70693D724011386D707CD
:1018A4001385C707931636006FF0DF94130C8CFF73
:1018B400B38A8A01B38A6A41130A00006FF0DFC356
:1018C4009305840013050900EF00C03A03A48900BE
:1018D40083A70C00832A44006FF0DFC71307405529
:1018E4006364F70293D725019386D7071387C70745
:1018F400939636006FF0DFCD9306803F1306F00712
:101904001305E0076FF01F8F9306803F1307E0076E
:101914006FF01FCC83A749006FF01FE593073000D9
:1019240063F8C702B367B50093F737009306300036
:10193400639207060327050083A70500631CF704C9
:101944001306C6FF1305450093854500E3E4C6FE70
:101954009307F6FF630C06020347050083C60500E0
:10196400631ED70213871700930715003305E5009C
:101974006F00400103C7070083C605009387170063
:10198400631ED70093851500E396A7FE1305000098
:10199400678000009307F6FF6FF01FFC3305D74004
:1019A400678000001303F00013070500637EC30281
:1019B4009377F7006390070A63920508937606FF0E
:1019C4001376F600B386E6002320B7002322B7007F
:1019D4002324B7002326B70013070701E366D7FEC5
:1019E4006314060067800000B306C3409396260084
:1019F40097020000B38656006780C6002307B7002D
:101A0400A306B7002306B700A305B7002305B70054
:101A1400A304B7002304B700A303B7002303B7004C
:101A2400A302B7002302B700A301B7002301B70044
:101A3400A300B7002300B7006780000093F5F50FFB
:101A440093968500B3E5D50093960501B3E5D500DB
:101A54006FF0DFF69396270097020000B3865600D6
:101A640093820000E78006FA93800200938707FFC1
:101A74003307F7403306F600E378C3F66FF0DFF37D
:101A840067800000678000009387418383A7070075
:101A940023A4A70A23A6070A67800000938741832B
:101AA40003A80700B785954C9385D5F28326880A49
:101AB4000327C80AB387B60213861700B337F600A4
:101AC4002324C80A37F651581306D6423386C60271
:101AD4003307B702B3B6B6023307C7003307D700DC
:101AE400B387E700139517002326F80A135515004A
:101AF40067800000130101FF232481001304050003
:101B04001385050023AC011E23261100EF60D0735A
:101B14009307F0FF630AF5008320C10003248100CA
:101B240013010101678000009387811F83A70700C9
:101B3400E38407FE2320F4008320C10003248100F2
:101B44001301010167800000130101FE232C8100B1
:101B5400232A91002328210123263101138405001F
:101B6400232E110097090500938989EA13090500BA
:101B7400EFF01FF183A68900371700009307F7FEE3
:101B840083A446003384874093F4C4FF3304940051
:101B94001354C4001304F4FF1314C400634EE4008C
:101BA4009305000013050900EFF0DFF483A7890013
:101BB400B38797006306F50213050900EFF09FEC65
:101BC4008320C101032481018324410103290101EC
:101BD4008329C1001305000013010102678000007E
:101BE400B305804013050900EFF0DFF09307F0FF21
:101BF4006306F5049387418783A7070003A7890039
:101C0400B384844093E414003384874013050900AB
:101C14002322970023AA8186EFF0DFE68320C10107
:101C24000324810183244101032901018329C10083
:101C340013051000130101026780000093050000E2
:101C440013050900EFF01FEB03A789009306F000CA
:101C5400B307E540E3D2F6F69386C18283A6060075
:101C640093E717002322F7003305D54023AAA18662
:101C74006FF09FF4638E0512130101FF232481008A
:101C840023229100138405009304050023261100E8
:101C9400EFF01FDF8325C4FF130784FF170505003A
:101CA400130505D793F7E5FF3306F70083264600AF
:101CB4000328850093F6C6FF6304C81A2322D600BE
:101CC40093F515003308D6006394050A032384FFB3
:101CD4008325480097080500938808D43307674094
:101CE40003288700B387670093F51500630418156C
:101CF4000323C70023266800232403016380051EF1
:101D040093E617002322D7002320F6009306F01F42
:101D140063ECF60A93D73700938617009396360040
:101D2400832545003305D5000326050093D62740B7
:101D340093071000B397D700B3E7B700930685FF66
:101D44002326D7002324C7009706050023A4F6CC36
:101D54002320E5002326E600032481008320C1001C
:101D64001385040083244100130101016FF09FD106
:101D74008325480093F51500639E0502B387D700B9
:101D840097080500938848C98326860013E817003E
:101D9400B305F700638016170326C60023A6C60002
:101DA4002324D6002322070123A0F5006FF01FF699
:101DB4006780000093E61700232ED4FE2320F6004C
:101DC4009306F01FE3F8F6F493D697001306400049
:101DD4006364D60E93D667009385960313868603B1
:101DE40093953500B305B50083A60500938585FF5B
:101DF4006384D51203A646001376C6FF63F6C700B4
:101E040083A68600E398D5FE83A5C6002326B700E3
:101E14002324D7000324810023A4E5008320C100E8
:101E2400138504008324410023A6E6001301010165
:101E34006FF05FC563940514832586000326C600EE
:101E4400B387F60093E6170023A6C5002324B60043
:101E54002322D7003307F7002320F7006FF0DFEFCA
:101E640093F51500B387D70063900502832584FF9B
:101E74003307B7408326C70003268700B387B7001C
:101E84002326D60023A4C6009386018313E61700F5
:101E940083A606002322C70017060500232EE6B6F4
:101EA400E3ECD7EA9387C18683A507001385040072
:101EB400EFF09FC96FF05FEA130640016374D60226
:101EC40013064005636AD60693D6C7009385F606C3
:101ED4001386E606939535006FF0DFF0B387D700DD
:101EE4006FF09FEA9385C6051386B6059395350072
:101EF4006FF05FEF9706050023A6E6B2970605008C
:101F040023A0E6B223261701232417012322070165
:101F140023A0F5006FF05FE403254500930710004C
:101F2400135626403396C7003366A600970705006C
:101F340023A2C7AE6FF09FED13064015636CD60065
:101F440093D6F70093858607138676079395350015
:101F54006FF05FE913064055636CD60093D62701F2
:101F64009385D6071386C607939535006FF09FE7D0
:101F74009305803F1306E0076FF0DFE693E6170052
:101F84002322D7002320F6006FF01FDD130101FF89
:101F9400232481001384050083A5050023229100D6
:101FA400232611009304050063840500EFF01FFE4F
:101FB40093050400032481008320C10013850400D9
:101FC40083244100130101016FF0DFCA9387418329
:101FD40083A707006382A7100327C504130101FE2A
:101FE400232A9100232E1100232C81002328210170
:101FF400232631019304050063020704130900003A
:1020040093090008B307270183A50700638E050021
:1020140003A4050013850400EFF0DFC59305040055
:10202400E31804FE03A7C40413094900E31C39FDA3
:102034009305070013850400EFF0DFC383A50404B0
:102044006386050013850400EFF0DFC283A58414C2
:10205400638005021389C414638C250103A405005D
:1020640013850400EFF01FC193050400E31889FEF3
:1020740083A544056386050013850400EFF09FBF24
:1020840083A78403638C070283A7C4031385040016
:10209400E780070083A5042E6382050203248101DF
:1020A4008320C101032901018329C1001385040090
:1020B40083244101130101026FF05FED8320C1010C
:1020C4000324810183244101032901018329C100DF
:1020D400130101026780000067800000B7470F000A
:1020E40093870724B3D5F502B7C70000938787FF0A
:1020F4003306F600832706003385A5023305F50071
:1021040083270600B307F540E3DC07FE6780000081
:1021140013051000678000001305000067800000AD
:1021240083270500B385B70023A0C500678000009E
:1021340083270500B385B70003A505006780000069
:10214400130101FE232E1100232C8100232A910068
:102154002328210123263101130905009384050056
:102164000324850003A6850093058010130504004D
:10217400EFF01FFB8326440103A706001377170023
:1021840083A746009397170093F72700B367F700D8
:1021940003A78600131727001377C7003367F700D8
:1021A40083A7C6009397470093F7070133E7E70037
:1021B40083A706019397570093F70702B3E7E70055
:1021C40003A7440093761700638A06029376870078
:1021D400638E0606B7060300B3E7D700937647007D
:1021E40063860600B7060800B3E7D7001377070134
:1021F4006306070037071000B3E7E700032704016D
:10220400630C070683D60400130730036380E606D5
:1022140083D90400939989013707003FB3F9E90092
:10222400B3E93701B70712F883A7870093F71700BC
:102234006380070C3706B0F8B7E5F50593850510FC
:1022440013051000EFF09FE96FF0DFFD9376270090
:1022540063880600B7060100B3E7D7006FF01FF8E4
:10226400B7060200B3E7D7006FF05FF73707200027
:10227400B3E7E7006FF0DFF903D704001307A7FF04
:10228400131607011356060193063001E3E2C6F85C
:1022940013172600B7960000938686AA3307D70043
:1022A400032707006700070037072000B3E7E700AC
:1022B4006FF01FF637072000B3E7E7006FF05FF514
:1022C40037072000B3E7E7006FF09FF437072000DB
:1022D400B3E7E7006FF0DFF337072000B3E7E70069
:1022E4006FF01FF337072000B3E7E7006FF05FF2EA
:1022F400138609009305C01013050400EFF05FE294
:102304003706B0F8B7E5F5059385051013054006C3
:10231400EFF0DFDC03A741BB93071000E31CF7FEDB
:10232400938741BB23A0070083A7C7016392070AD1
:10233400938741BB83A70702639C0708938741BB2C
:1023440083A7470263960708938741BB83A7870245
:102354006390070883A7440013F7F7006304070892
:1023640093F7270063840704930500111305040001
:10237400EFF01FDC23A6A40093054011130504000D
:10238400EFF01FDB23A8A4009305801113050400BC
:10239400EFF01FDA23AAA4009305C011130504006B
:1023A400EFF01FD923ACA4006F00C0039305001104
:1023B40013050400EFF0DFD723A6A4009305401112
:1023C40013050400EFF0DFD623A8A4006F008001FA
:1023D400938741BB23AE070023A0070223A2070271
:1023E40023A4070203D70400930770036306F702CC
:1023F4002328040023248900130500008320C1013D
:102404000324810183244101032901018329C1009B
:102414001301010267800000930710002328F400D1
:102424006FF05FFD130101FE232E1100232C8100A8
:10243400232A910023282101232631011389050031
:1024440093090600138406008324850013060010F4
:10245400930500001385C1A9EFF0CFD41306001033
:10246400930500001385C199EFF0CFD31306001034
:1024740093050000372505001305C52CEFF08FD216
:1024840033862903135306019317060193D70701D3
:102494006384070013031300930600006F00C00653
:1024A400930500009307F3FF638AD70693E51502AB
:1024B400939736001387C1A9B388E70013982600C1
:1024C4001385C199330505012320150123A0B80004
:1024D40013074700B307F700372705001307C72C76
:1024E400330707012320F7001397060133078700FA
:1024F40023A0E700B707010063F6C700B707FFFF93
:102504003306F6009386160063FE6600B7070100E3
:10251400E3E8C7F8931506016FF0DFF893E5350299
:102524006FF01FF903A6C199930580151385040064
:10253400EFF01FBF130500008320C10103248101B4
:1025440083244101032901018329C10013010102EC
:1025540067800000130101FE232E1100232C81004B
:10256400232A910023282101232631012324410118
:1025740013040500138905009304060083298500CC
:1025840083A7490123A007000327860093071000AF
:102594006306F70683A749011307100023A4E70085
:1025A40003A74400930720006300F70683A74901AB
:1025B4001307100023A6E7002324340183A7840013
:1025C4009397070103A6C40033E6C70093054010A0
:1025D40013850900EFF0DFB4930509001305040027
:1025E400EFF01FB603A7440093072000630CF70A1B
:1025F400130A0000130400006F00C01383A74901ED
:1026040023A407006FF0DFF983A7490123A607007D
:102614006FF09FFA83A704009306140033878700A2
:102624000347070013062400B386D70083C60600B9
:10263400939686003367D700930634003386C70029
:1026440003460600131606013367C700B387D70095
:102654001304440003C60700131686013366C7003B
:102664009305001213850900EFF09FAB13091900BD
:1026740083A7C40093D72700E36EF9F8130A1A005E
:1026840083A784006376FA0E93054012138509002C
:10269400EFF01FAA13750540E30805FE13090000B7
:1026A4006FF01FFD130A0000130400006FF05FFDBC
:1026B400130900009307F00763CC27079305001262
:1026C40013850900EFF0DFA603A7040093061400A6
:1026D400330787002300A7001357850083A704004E
:1026E40013062400B387D7002380E700935605011F
:1026F40003A70400930734003307C7002300D7005F
:102704001355850103A70400B307F700130444001D
:102714002380A7003706B0F8B7E5F50593850510C3
:1027240013051000EFF09F9B130919006FF09FF839
:10273400130A1A0083A78400637CFA0293054012EB
:1027440013850900EFF0DF9EB71700009387078019
:102754003375F500E31E05F43706B0F8B7E5F50563
:102764009385051013051000EFF05F976FF01FFDC0
:10277400938741BB03A7470093071000E31AF7FEB2
:10278400938741BB23A20700130500008320C101E6
:102794000324810183244101032901018329C10008
:1027A400032A81001301010267800000835705009A
:1027B400130710016386E702130720016386E7020B
:1027C400130780016386E702130790016386E7001D
:1027D40013050000678000001305100067800000E7
:1027E40013051000678000001305100067800000C7
:1027F4001305100067800000130101FF2326110058
:1028040023248100232291002320210113090500A0
:10281400138405009304060013850500EFF01FF9E7
:10282400630A0502638A0400138604009305040006
:1028340013050900EFF01FD2130500008320C10027
:1028440003248100832441000329010013010101B1
:10285400678000009305040013050900EFF05F8E04
:102864006FF09FFD130101FF23261100930705005C
:10287400032585000326450003A787016366E60454
:102884001306070023A2C702B78701009387076ACC
:10289400B3C7C7023706010033E6C70093054000FB
:1028A400EFF01F883706B0F8B7E5F50593850510F6
:1028B4001305A000EFF09F82130500008320C100E0
:1028C400130101016780000003A74701E36CC7FA05
:1028D400130607006FF01FFB130101FF23261100ED
:1028E400930705000325850003A70702930730001B
:1028F40063F0E7021306200093058012EFF05F8275
:10290400130500008320C10013010101678000004A
:10291400130610006FF05FFE130101FF2326110060
:102924002324810013040500EFF0DFF313050400F2
:10293400EFF09FFA130500008320C10003248100F7
:102944001301010167800000130101FF2326110018
:1029540023248100130405008327050083A747006F
:1029640083A7C700E78007008327040083A74700E5
:1029740083A7070113050400E780070083270400E9
:1029840083A7470083A7470013050400E7800700D7
:10299400130500008320C1000324810013010101F9
:1029A40067800000130101FE232E1100232C8100F7
:1029B400232A910023282101232631011304050031
:1029C4009389050013058001EFE0CFF2930405001D
:1029D40013054001EFE00FF21309050023840400FE
:1029E400A384040023850400A38504002386040033
:1029F400A386040023870400A3870400238804001B
:102A0400A388040023890400A38904001306400159
:102A140093050000EFE01FF923A03401B7C70000BD
:102A24009387073523A2F40023AA240123249400C6
:102A34008326040037970000130787AF23A0E6001E
:102A44000327040083264700372700001307C77FA6
:102A540023A0E6000327040083264700373700003D
:102A64001307C79123A2E600032704008326470027
:102A7400372700001307471123A6E60003270400A5
:102A840083264700372700001307C71123A8E60051
:102A9400232CF400B73700009387470D232AF40052
:102AA400B70700202326F4028327040013070040FD
:102AB40023ACE700930740002320F402930710009F
:102AC400232EF400930700202326F4068327040012
:102AD4003707300023A6E70013050400EFF0DFE614
:102AE400130500008320C1010324810183244101D3
:102AF400032901018329C100130101026780000039
:102B040003250504137515006780000013070504E9
:102B1400930700212320F5048327070093F7070177
:102B2400E39C07FE67800000130101FF23261100C8
:102B3400232481001304050013050400EFF05FFC57
:102B4400E31C05FE8320C10003248100130101015D
:102B540067800000130101FF2326110013070042C0
:102B64002320E504EFF05FFC8320C1001301010181
:102B7400678000008327450093F70710E39C07FE56
:102B840067800000130101FF232611001307103092
:102B94002322E500EFF01FFE8320C1001301010191
:102BA40067800000032585001375F50F678000001A
:102BB4000325C5001375F50F3335A00067800000A9
:102BC4000325C5001375F50F133515006780000044
:102BD400130101FF232611002324810023229100E5
:102BE4001304050093840500377501F8EFF01FF214
:102BF400377701F8B7170000938707B22320F7004F
:102C0400377501F8EFF01FF8377501F8EFF05FFB47
:102C1400EF20D00363000502130410001305040021
:102C24008320C10003248100832441001301010196
:102C3400678000009357840037170000130707B01C
:102C4400B3E7E700377701F82320F700377501F879
:102C5400EFF05FF3377501F8EFF09FF6EF20007F98
:102C640063060500130410006FF05FFB1374F40F88
:102C7400B7170000938707B03364F400B77701F8FF
:102C840023A08700377501F8EFF0DFEF377501F8FF
:102C9400EFF01FF3EF20807B6306050013041000A0
:102CA4006FF0DFF7B7170000938707B0B3E4F400C1
:102CB400B77701F823A09700377501F8EFF09FEC80
:102CC400377501F8EFF0DFEFEF20407813040500CB
:102CD40063060500130410006FF05FF4377501F804
:102CE400EFF05FE76FF09FF3130101FE232E110055
:102CF400232C8100232A910023282101232631013A
:102D040093040500377501F8EFF05FE0377901F8B7
:102D140037140000930704B22320F900377501F833
:102D2400EFF05FE6377501F8EFF09FE9EF200072EE
:102D340093D78400930904B0B3E737012320F90043
:102D4400377501F8EFF01FE4377501F8EFF05FE72E
:102D5400EF20C06F93F4F40FB3E4340123209900FF
:102D6400377501F8EFF01FE2377501F8EFF05FE512
:102D7400EF20C06D377501F8EFF0DFDD377501F82E
:102D8400EFF0DFD8930714B22320F900377501F868
:102D9400EFF05FDF377501F8EFF09FE2EF20006B93
:102DA4001304F4BF23208900377501F8EFF09FDD89
:102DB400377501F8EFF0DFDFEF204069377501F870
:102DC400EFF05FDE1374F50F377501F8EFF09FD85D
:102DD400130504008320C1010324810183244101DC
:102DE400032901018329C100130101026780000046
:102DF400130101FF232611002324810093055000B1
:102E0400373400001305B40EEFF09FDC9305C000C7
:102E14001305B40EEFF0DFDB9305F00F1305A400E8
:102E2400EFF01FDB9305F00F1305B400EFF05FDA4A
:102E3400930550001305B40EEFF09FD9930590004D
:102E44001305B40EEFF0DFD88320C1000324810002
:102E54001301010167800000130101FF2326110003
:102E64002324810023229100930405001384050088
:102E7400935585001305C016EFF09FD593F5F40F15
:102E84001305D016EFF0DFD4935584001305E01634
:102E9400EFF01FD49375F40F1305F016EFF05FD322
:102EA4008320C10003248100832441001301010114
:102EB40067800000130101FE232E1100232C8100E2
:102EC400232A910023282101232631019309050097
:102ED40013890500930406001384060093558500A6
:102EE40013054016EFF0DFCE93F5F90F13055016D6
:102EF400EFF01FCE9355890013056016EFF05FCDF8
:102F04009375F90F13057016EFF09FCC93D58400D9
:102F140013058016EFF0DFCB93F5F40F130590162D
:102F2400EFF01FCB935584001305A016EFF05FCA92
:102F34009375F40F1305B016EFF09FC98320C101F8
:102F44000324810183244101032901018329C10050
:102F54001301010267800000130101FF2326110001
:102F64002324810023229100930405001384050087
:102F74009355850013054016EFF09FC593F5F40FA4
:102F840013055016EFF0DFC4935584001305601643
:102F9400EFF01FC49375F40F13057016EFF05FC3C1
:102FA4008320C10003248100832441001301010113
:102FB40067800000130101FF2326110023248100F0
:102FC4002322910093040500138405009355850082
:102FD40013058016EFF0DFBF93F5F40F1305901679
:102FE400EFF01FBF935584001305A016EFF05FBEEA
:102FF4009375F40F1305B016EFF09FBD8320C10045
:10300400032481008324410013010101678000002F
:10301400130101FF232611002324810013840500DA
:103024009307200063F4A7001305300093072000E2
:1030340063F487001304300093050500130540175B
:10304400EFF01FB99305040013055017EFF05FB8B4
:103054008320C10003248100130101016780000063
:10306400130101FF23261100232481002322910050
:1030740093040500138405009355850013054062ED
:10308400EFF01FB593F5F40F13055062EFF05FB442
:103094009355840013056062EFF09FB39375F40FAA
:1030A40013057062EFF0DFB28320C10003248100B6
:1030B400832441001301010167800000130101FE14
:1030C400232E1100232C8100232A9100232821017F
:1030D4002326310113040500938905009304060097
:1030E400138906009305000013050060EFF05FAE3E
:1030F400630404001384090093050400130510609D
:10310400EFF01FAD9305090013850400EFF05FF5A0
:103114008320C10103248101832441010329010186
:103124008329C1001301010267800000130101FE1D
:10313400232E1100232C8100232A9100232821010E
:10314400232631012324410123225101130A0500BE
:10315400938A050093090600138906009304070067
:10316400138407009305000013050060EFF05FA6C9
:103174009305100013051060EFF09FA593D5890007
:1031840093F5350013052060EFF09FA493F5F90F34
:1031940013053060EFF0DFA39355890093F53500F4
:1031A40013054060EFF0DFA29375F90F130550602B
:1031B400EFF01FA293D5840093F5350013056060EA
:1031C400EFF01FA19374F40F93850400130570604E
:1031D400EFF01FA09355840093F53500130580602C
:1031E400EFF01F9F9385040013059060EFF05F9E3E
:1031F40093850A0013050A00EFF09FE68320C101BE
:103204000324810183244101032901018329C1008D
:10321400032A8100832A4100130101026780000010
:10322400130101FF232611002324810013840500C8
:103234009305050013057015EFF09F99630C0500C5
:10324400130510008320C100032481001301010130
:10325400678000009355840093F5F50013058015ED
:10326400EFF01F979375F40F13059015EFF05F9629
:103274006FF05FFD130101FF232611002324810059
:10328400232291009305000013050010EFF05F94D2
:103294006300050213041000130504008320C10019
:1032A400032481008324410013010101678000008D
:1032B40013040500EFF0DFB393051000130540116C
:1032C400EFF01F919305000013058012EFF05F905B
:1032D400930580011305A012EFF09F8F9305000062
:1032E4001305B012EFF0DF8E9305400013050016AE
:1032F400EFF01F8E9305900513051016EFF05F8D08
:103304009305D00013052016EFF09F8C93058007DA
:1033140013053016EFF0DF8B9306B06E1306202BE7
:10332400B7150000938575A21305802AEFF09FB8A6
:103334009305804313050078EFF01FB29305100046
:1033440013050017EFF0DF8893051000130510171D
:10335400EFF01F889305000013050000EFF05FCB2A
:103364009305A0001305C018EFF09F869305A000F5
:103374001305D018EFF0DF859305500013051030C6
:10338400EFF01F859305100013053030EFF05F84D4
:103394009305300013054030EFF09F839305300010
:1033A40013055030EFF0DF82930500001305603001
:1033B400EFF01F829305000613057030EFF05F8174
:1033C4009305A00013059030EFF09F809305100043
:1033D4001305B030EFF0CFFF930500001305C030A4
:1033E400EFF00FFF930520071305D030EFF04FFEE9
:1033F4009305A00013059030EFF08FFD93051000A6
:103404001305B030EFF0CFFC930500001305C03076
:10341400EFF00FFC930520071305D030EFF04FFBBE
:103424009305002013050004EFF09FDF930560006F
:1034340013050016EFF0CFF99305300E130510169F
:10344400EFF00FF99305D00013052016EFF04FF8B5
:103454009305800713053016EFF08FF793054000AE
:103464001305A015EFF0CFF6930540051305B0152D
:10347400EFF00FF69305100013050019EFF04FF568
:103484009305000013051019EFF08FF49305100055
:1034940013053019EFF0CFF393050000130540191D
:1034A400EFF00FF39305000013055019EFF04FF2FE
:1034B4009305000013058019EFF08FF19305000FB9
:1034C40013059019EFF0CFF09305000F1305A01921
:1034D400EFF00FF0930500001305B019EFF04FEF74
:1034E4009305A0001305C019EFF08FEE93050000BB
:1034F4001305D019EFF0CFED930580001305E01903
:10350400EFF00FED930500001305F019EFF04FEC09
:10351400930580001305001AEFF08FEB930500006C
:103524001305101AEFF0CFEA9305C0001305201A13
:10353400EFF00FEA930500001305301AEFF04FE99E
:1035440093050000B7D400001385A41EEFF04FE8E4
:10355400930500061385B41EEFF08FE79305000072
:1035640013052017EFF0CFE69305100013050010A4
:10357400EFF00FE66FF05FD2032545001355050108
:103584001375F50F67800000130101FF2326110056
:103594002324810023229100130405009384050051
:1035A40013050400EFF05FFDE30C05FE23209400F7
:1035B4008320C100032481008324410013010101FD
:1035C40067800000130101FF2326110023248100DA
:1035D400232291009304050013840500834504000D
:1035E400638A05001304140013850400EFF0DFF967
:1035F4006FF0DFFE8320C100032481008324410097
:10360400130101016780000093952500B385A5008F
:1036140023A0C50067800000939575003385A5003D
:1036240093555600939525003305B500B725000042
:103634003305B50093071000B397C700638A0600EB
:1036440003260500B3E7C7002320F50067800000C8
:103654000326050093C7F7FFB3F7C7002320F5003F
:10366400678000009395C500B385A5003705200049
:10367400B385A50023A0C500678000009395C5000D
:10368400B385A5003705200013054500B385A500C3
:1036940003A50500678000009395C500B385A500C8
:1036A4003705200013054500B385A50023A0C500F8
:1036B4006780000093957500B385A50023AAC5040F
:1036C4006780000093957500B385A50003A54505A3
:1036D4003375A60067800000130101FF2326110043
:1036E40093050500370501F8EFF0DFED8320C100F5
:1036F4001301010167800000130101FF232611005B
:103704002324810023229100930405003704004000
:103714001304F4FF33848500131424006346040265
:10372400B3D7840013F7F700B79700009387C7B0A7
:10373400B387E70083C50700370501F8EFF0DFE43E
:103744001304C4FF6FF09FFD8320C1000324810094
:10375400832441001301010167800000130101FF6C
:1037640023261100232481001306000093058013EF
:1037740003A5C1B9EFE0DF9A9305001303A5C1B90E
:10378400EFE01F9B1304050093771500639E070663
:103794009377240063980708937744006394070A97
:1037A400937704016390070C937704026396070CE4
:1037B40093770404639C070C937704086398070EBB
:1037C4009317F40063C407109317E40063C007124F
:1037D4009317D40063CC07129317C40063C807146B
:1037E4009317A40063C407161306F0FC9305801313
:1037F40003A5C1B9EFE0DF928320C1000324810057
:1038040013010101678000001307100023AAE1BA25
:10381400130610009305001303A5C1B9EFE05F90F0
:103824006FF01FF7938741BB1307100023A2E70033
:10383400130620009305001303A5C1B9EFE05F8EC2
:103844006FF09FF5938741BB1307100023A4E70093
:10385400130640009305001303A5C1B9EFE05F8C84
:103864006FF01FF4130600019305001303A5C1B9FB
:10387400EFE01F8B6FF05FF3130600029305001354
:1038840003A5C1B9EFE0DF896FF09FF2938741BBD5
:103894001307100023AAE70013060004930500137E
:1038A40003A5C1B9EFE0DF876FF01FF1938741BB38
:1038B4001307100023ACE700130600089305001358
:1038C40003A5C1B9EFE0DF856FF09FEF938741BB9C
:1038D4001307100023AEE700370601009305001319
:1038E40003A5C1B9EFE0DF836FF01FEE938741BBFF
:1038F4001307100023A0E702370602009305001304
:1039040003A5C1B9EFE0DF816FF09FEC938741BB62
:103914001307100023A2E7023706040093050013DF
:1039240003A5C1B9EFE0CFFF6FF01FEB938741BB55
:103934001307100023A4E7023706080093050013B9
:1039440003A5C1B9EFE0CFFD6FF09FE93706200072
:103954009305001303A5C1B9EFE08FFC6FF0DFE816
:10396400130101FF23261100130600019305000033
:10397400370513F8EFF01FD563160504130600018D
:1039840093051000370513F8EFF0DFD3631E050627
:103994001306000193052000370513F8EFF09FD2BA
:1039A4006318050A1306000193053000370513F860
:1039B400EFF05FD16312050E8320C10013010101F2
:1039C400678000001306000193050000370513F813
:1039D400EFF05FCE138741BA832707009387170060
:1039E4002320F70013079000E35AF7F823A201BA43
:1039F40083A701BA93C7170023A0F1BA370711F8B8
:103A04002322F7006FF09FF71306000193051000BF
:103A1400370513F8EFF01FCA138741BA832747000D
:103A2400938717002322F70013079000E352F7F659
:103A3400938741BA23A2070083A701BA93C727003B
:103A440023A0F1BA370711F82322F7006FF05FF4CF
:103A54001306000193052000370513F8EFF09FC506
:103A6400138741BA83278700938717002324F7001D
:103A740013079000E358F7F2938741BA23A4070091
:103A840083A701BA93C7470023A0F1BA370711F8F7
:103A94002322F7006FF01FF1130600019305300095
:103AA400370513F8EFF01FC1138741BA8327C70006
:103AB400938717002326F70013079000E35EF7EEC1
:103AC400938741BA23A6070083A701BA93C7870047
:103AD40023A0F1BA370711F82322F7006FF0DFEDC6
:103AE400130101FF23261100B7950000938505B249
:103AF400370501F8EFF01FAD6F000000130101FF5F
:103B040023261100232481001304050037950000A7
:103B1400130505B3EFF05FBC9305800013050400A3
:103B2400EFF09FBD371505001305857BEFF0DFBA75
:103B3400B7950000938505B2370501F8EFF09FA80B
:103B44006F000000130101FF2326110023248100CC
:103B54001304050037950000130505B3EFF0DFB734
:103B64009305800013050400EFF01FB93715050015
:103B74001305857BEFF05FB68320C1000324810029
:103B84001301010167800000130101FF23261100C6
:103B9400232481006F008001EFF05FBC1306040052
:103BA400930500003705C0F8EFF01FAF9305000040
:103BB4003705C0F8EFF09FAC13040500630C050251
:103BC40093071001E30AF4FC930760016300F40215
:103BD40093070001E304F4FC37950000130505B4D2
:103BE400EFF09FAF13050400EFF05FF1EFF05FD744
:103BF4006FF0DFFA8320C100032481001301010167
:103C040067800000130101FF232611002324810093
:103C140023229100232021017324203463500404BF
:103C24009374F4009307B0006390F402EFF0DFF5AF
:103C34008320C1000324810083244100032901005F
:103C4400130101016780000037950000130545B595
:103C5400EFF09FA813850400EFF05FEA1359F40115
:103C640037950000130585B6EFF01FA71305040070
:103C7400EFF05FED13050900EFF05FE8130101FFBA
:103C84002326110023A001BA130700006F0080014E
:103C940093162700938741BAB387D70023A0070060
:103CA4001307170093073000E3D4E7FE1306000060
:103CB400930500003705C0F8EFF0DF9A9306100073
:103CC40013061001930500003705C0F8EFF0DF94E8
:103CD40013061000930510013705C0F8EFF0DF92CA
:103CE4009306100013066001930500003705C0F821
:103CF400EFF09F9213062000930560013705C0F88A
:103D0400EFF09F90B78700009387C75173905730A7
:103D1400B71700009387078073A04730B7270000C8
:103D240093878780739007308320C10013010101BA
:103D340067800000130101FF232611002324810062
:103D44000325850023AEA1B8130600009305401394
:103D5400EFE00FBD1306F0FC9305401303A5C1B9B2
:103D6400EFE00FBC1306F0FC9305801303A5C1B963
:103D7400EFE00FBB8320C100032481001301010184
:103D84006780000003254500135505011375F50FE1
:103D940067800000032545001355850167800000F6
:103DA400130101FF23261100232481002322910003
:103DB400130405009384050013050400EFF09FFC31
:103DC400E30C05FE232094008320C100032481001A
:103DD400832441001301010167800000130101FFE6
:103DE400232611002324810023229100930405003B
:103DF4001384050083450400638A0500130414003A
:103E040013850400EFF0DFF96FF0DFFE8320C100BB
:103E14000324810083244100130101016780000011
:103E2400130101FF2326110023248100130405003C
:103E340013050400EFF01FF6E30C05FE0325040050
:103E44001375F50F8320C1000324810013010101C0
:103E54006780000093060500B7C700001387C7FFFB
:103E64003387E60083250700938787FFB387F6002F
:103E740003A5070083270700E390B7FE67800000CF
:103E8400B7470F0093870724B3D5F502B7C70000DF
:103E9400938787FF3306F600832706003385A50240
:103EA4003305F50083270600B307F540E3DC07FE7E
:103EB40067800000130101FF23261100930505000C
:103EC400370501F8EFF0DFED8320C1001301010194
:103ED40067800000130101FF2326110023248100C1
:103EE40013040500034504006308050013041400CB
:103EF400EFF05FFC6FF01FFF8320C10003248100FB
:103F04001301010167800000130101FF2326110042
:103F14002324810023229100930405001304C0018B
:103F24006F004002B3D7840013F7F700B79700007F
:103F34009387C7B0B387E70003C50700EFF09FF787
:103F44001304C4FFE35004FE8320C1000324810052
:103F5400832441001301010167800000130101FF64
:103F640023261100232481002322910093040500B9
:103F74001304C0016F004002B3D7840013F7F700A5
:103F8400B7970000938747B7B387E70003C50700D7
:103F9400EFF05FF21304C4FFE35004FE8320C1007A
:103FA4000324810083244100130101016780000080
:103FB400130101FF232611001375F50FEFF09FEF96
:103FC4008320C1001301010167800000130101FF78
:103FD40023261100EFF01FF08320C100130101011B
:103FE40067800000130101FD2326110223248102AE
:103FF4002322910293040500634605001304010083
:104004006F00C0021305D002EFF09FFAB304904092
:104014006FF0DFFE1307A000B3E7E4029387070302
:104024002300F400B3C4E40213041400E39404FE74
:1040340093070100E300F4FE6F0000011304F4FF92
:1040440003450400EFF0DFF693070100E318F4FEE4
:104054008320C1020324810283244102130101034A
:1040640067800000130101FF2326110013070000DD
:104074009307700063C0E70293162700930700FFBD
:10408400B397D700B377F5006386070013071700CB
:104094006FF01FFEEFF09FEC8320C10013010101BC
:1040A40067800000130101FF23261100130700009D
:1040B4009307700063C0E70293162700930700FF7D
:1040C400B397D700B377F50063860700130717008B
:1040D4006FF01FFEEFF05FE38320C10013010101C5
:1040E40067800000939575003385A5009307F0FF62
:1040F400232AF5042328C5046780000093957500DE
:10410400B385A50023AAC5046780000093957500B4
:10411400B385A50093968600B3E6C60023A2D50412
:1041240067800000130101FC232E1100232C810061
:10413400232A9100930405002322B1022324C102FF
:104144002326D1022328E102232AF102232C01038E
:10415400232E1103930741022326F10013040000C8
:104164006F00C0018327C100138747002326E100A5
:1041740003A50700EFF0DFE313041400B387840002
:1041840003C507006302050C930750026306F50696
:10419400EFF01FE26FF05FFE8327C1001387470033
:1041A4002326E10003A50700EFF05FE26FF0DFFCD8
:1041B4008327C100138747002326E10003A50700D6
:1041C400EFF05FE26FF05FFB8327C10013874700C6
:1041D4002326E10003A50700EFF0DFEC6FF0DFF921
:1041E4008327C100138747002326E10003A50700A6
:1041F400EFF05FE76FF05FF813041400B3878400F7
:1042040083C70700E38A07F613073006E38CE7F455
:1042140013073007E382E7F813074006E38AE7F859
:1042240013078005E382E7FA13078007E38AE7FAB6
:1042340013076006E392E7FC37950000130585B881
:10424400EFF0DFD86FF05FF38320C1010324810115
:10425400832441011301010467800000130101FF5D
:104264002326110093050500370501F8EFF01FB769
:104274008320C1001301010167800000130101FCC8
:10428400232E1102232C8102232A910223282103A5
:1042940023263103232441032322510323206103D2
:1042A400930A05003706B0F8B7E5F50593850510C0
:1042B40037450F0013050524EFF09FBC13050008D4
:1042C400EFC05FE31304050013050002EFC09FE293
:1042D400930405001305C001EFC0DFE113090500D5
:1042E4001305C001EFC01FE1930905001305000188
:1042F400EFC05FE0130A050037950000130545BDC4
:10430400EFF05FE237950000130545BFEFF09FE142
:104314001306C0079305000013054400EFD08FE88F
:10432400130600029305000013850400EFD08FE705
:104334001306C0019305000013050900EFD08FE6B2
:104344001306C0019305000013850900EFD08FE523
:10435400130600019305000013050A00EFD08FE453
:10436400370602009305000037055002EFD08FE3B3
:104374002320940023A22401B70512F81305040096
:10438400EFE04FE213050400EFF0DF9A9385090094
:1043940013050400EF10C069630605028320C103FE
:1043A4000324810383244103032901038329C102D4
:1043B400032A8102832A4102032B0102130101040F
:1043C400678000009304050037950000130585C03D
:1043D400EFF05FD5B705020037055002EF105054D7
:1043E400032A84069307803E335AFA0283278407FC
:1043F4000329C4071319790193D797003369F90086
:1044040037950000130505C1EFF0DFD1B7C50000F3
:104414009385053537950000130585C4EFF09FD0CB
:1044240093050A0037950000130505C6EFF09FCFEA
:10443400832784078325C4079395C50093D7470131
:1044440013060900B3E5F50037950000130585C789
:10445400EFF05FCD8325040237950000130545CAAC
:10446400EFF05FCC13060010930500203795000091
:104474001305C5CBEFF01FCB93050008379500005B
:10448400130585CEEFF01FCA37950000130545D0FC
:10449400EFF05FC9E3840AF037950000130585D374
:1044A400EFF05FC8379500001305C5D9EFF09FC73B
:1044B40037950000130545DEEFF0DFC6370501F838
:1044C400EFF01F96E30C05FE930710076306F50053
:1044D40093071005631AF50037950000130585E965
:1044E400EFF05FC46FF09FEB37950000130505E50F
:1044F400EFF05FC36F00800093840410E3F024EBBB
:1045040093060010130600009385090013050400A8
:10451400EF10407C3705B0F8EFF0DF93130A050085
:10452400930600103706500293050000130504009B
:10453400EF1090033705B0F8EFF0DF91930A050010
:104544003705B0F8EFF01F91130B05009306001028
:10455400370650029305000013050400EF10D01035
:104564003705B0F8EFF01F8F23282101232691008F
:10457400930700102324F1002320A100232201002B
:1045840013080B009308000013870A009307000028
:1045940013060A0093060000B705500237055002BF
:1045A400EF10101C370501F8EFF0CFFEE30605F419
:1045B400B70701F803AA0700137AFA0FB7950000AA
:1045C400938585E8370501F8EFF05F8193050A00CC
:1045D400370501F8EFF0CFFCB71505009385C578D2
:1045E400370501F8EFF08FFF930710076306FA0011
:1045F40093071005E312FAF037950000130585E9D7
:10460400EFF05FB26FF09FD9130101FF2326110071
:104614002324810023229100232021011309050072
:1046240093840500130400006F0000059305040043
:1046340037950000130545EFEFF0DFAE9305090051
:1046440037950000130585F1EFF0DFAD9385040085
:1046540037950000130585F2EFF0DFAC3706B0F8AC
:10466400B7E5F5059385051037150300130505D443
:10467400EFF01F81130414009307300063C2870412
:10468400B70711F823A8870293172400138701C1E1
:10469400B307F70083A70700E38207FC93850400B0
:1046A40013050900EFE0DFB7E30205F89305040002
:1046B40037950000130505EDEFF0DFA66FF01FFA44
:1046C4008320C100032481008324410003290100C5
:1046D4001301010167800000130101FE232E110064
:1046E400232C8100232A9100232821012326310130
:1046F40023244101232251019304050093890500D9
:1047040013090600130400006F00C00B93F5F40FA7
:104714001305D019EFE0CFCB93DA890093850A0013
:104724001305E019EFE0CFCA13FAF90F93050A0055
:104734001305F019EFE0CFC993850A001305001A99
:10474400EFE00FC993050A001305101AEFE04FC8F4
:10475400935589001305201AEFE08FC79375F90F5D
:104764001305301AEFE0CFC6930504003795000017
:10477400130585F3EFF01F9B938504003795000024
:10478400130505F5EFF01F9A93850900379500008E
:10479400130545F6EFF01F999305090037950000BE
:1047A400130585F7EFF01F983706B0F8B7E5F50560
:1047B4009385051037150300130505D4EFF04FEC6E
:1047C400130414009307300063CA8702B70711F873
:1047D40023A8870293172400138701C1B307F700A6
:1047E40083A70700E38207FC93D584001305C0194F
:1047F400EFE00FBEE31A05FA6FF05FF18320C10109
:104804000324810183244101032901018329C10077
:10481400032A8100832A41001301010267800000FA
:10482400130101FE232E1100232C8100232A910061
:10483400232821012326310123244101232251016C
:1048440023206101EF301048B70711F883A4470013
:1048540093F484FF13070000B7473F009387F77F63
:1048640063CEE70093162700B7070002B387D7008B
:1048740023A00700130717006FF01FFE938701158D
:104884003707000223A0E70037A71F0213070740DA
:1048940023A2E70037573F021307078023A4E7004A
:1048A40037F75E02130707C023A6E70037977E0297
:1048B40023A8E70037379E021307074023AAE7001F
:1048C40037E7BD021307078023ACE7003787DD0213
:1048D400130707C023AEE7003727FD0223A0E70232
:1048E40037C71C031307074023A2E70237950000CC
:1048F4001305C5F8EFF01F83EF30D03C130400001C
:104904006F0080059305040037950000130545FEEC
:10491400EFF05F816F00C00893172400138701C173
:10492400B307F7001307100023A0E7009305040062
:104934003795000013054503EFF0CFFE3706B0F8B6
:10494400B7E5F5059385051037150300130505D460
:10495400EFF00FD3130414009307300063C08706ED
:1049640093172400138701C1B307F70023A007009E
:10497400B70711F823A887029305040037950000B0
:10498400130545FAEFF00FFAEF20C058E30C05F6D3
:104994009305040037950000130545FBEFF08FF8ED
:1049A400EFE05F8DE30A05F69305040037950000F8
:1049B40013054501EFF00FF76FF05FF8370911F8B1
:1049C40023229900138401151306000093050000A7
:1049D40003250400EF2090661306100093051000D1
:1049E40003254400EF209065130610009305000092
:1049F40003258400EF209064130600009305100043
:104A04000325C400EF2090631306000093052000E3
:104A140003254401EF209062130600009305200053
:104A240003258401EF209061130600009305200004
:104A34000325C401EF2090601306000093052000B5
:104A440003250402EF20905F130600009305200065
:104A540003254402EF20905E9307000013076016BD
:104A64009306800C1306C0239305800C0325440190
:104A7400EF20D02A93071000130760169306800CCA
:104A84001306C0239305800C03258401EF2010290D
:104A940093072000130760169306800C1306C023A7
:104AA4009305800C0325C401EF20502793073000A1
:104AB400130760169306800C1306C0239305800C1D
:104AC40003250402EF209025930740001307601686
:104AD4009306800C1306C0239305800C032544021F
:104AE400EF20D023130600009305300003250401B2
:104AF400EF20D05493067000130650009305000075
:104B0400370513F8EFF08FE093067000130650009A
:104B140093051000370513F8EFF04FDF930670008C
:104B24001306500093052000370513F8EFF00FDE4D
:104B3400930670001306500093053000370513F8F0
:104B4400EFF0CFDC9306700013066000930550006D
:104B5400370513F8EFF08FDB93067000130670002F
:104B640093054000370513F8EFF04FDA1306000100
:104B740093050000370513F8EFF0CFD61306F0FFC6
:104B840093051000370513F8EFF04FD71306000113
:104B940093051000370513F8EFF0CFD41306F0FF98
:104BA40093052000370513F8EFF04FD513060001E5
:104BB40093052000370513F8EFF0CFD21306F0FF6A
:104BC40093053000370513F8EFF04FD313060001B7
:104BD40093053000370513F8EFF0CFD0232C0902EA
:104BE4003706B0F837EAF50593050A1037150300C0
:104BF400130505D4EFF0CFA813050000EF3080149F
:104C040013051000EF30001413052000EF3080135B
:104C140013053000EF30001323AC0180232C09026C
:104C24003706B0F893050A10B72A060013850AA8B8
:104C3400EFF00FA5938781179304200023A097001A
:104C440023A207000327040023A4E700B7A91F0039
:104C54001387F93F23A6E70023A8970023AA070098
:104C64008326440023ACD70023AEE70023A0970299
:104C740023A207028326840023A4D70223A6E702E3
:104C840023A8970223AA07028326C40023ACD702D1
:104C940023AEE70213060000930540001385811735
:104CA400EF30C0159305100003254400EF20D04DCC
:104CB4009305200003258400EF20104D9305300058
:104CC4000325C400EF20504C130BF000232C690380
:104CD4003706B0F893050A1013850AA8EFF04F9A27
:104CE4009305400003250400EF3040393706B0F83F
:104CF40093050A1013850AA8EFF08F989387811BF8
:104D040023A097000327840123A2E70023A407001C
:104D14001387094023A6E70023A897008326C4012C
:104D240023AAD70023AC070023AEE70023A09702F1
:104D34008326040223A2D70223A4070223A6E702A0
:104D440023A897028326440223AAD70223AC07028E
:104D540023AEE70213066000930540001385811B10
:104D6400EF30401E3706B0F893050A1013850AA8E1
:104D7400EFF00F919305500003250401EF3000304C
:104D8400232009029307C0212322F90223240902C4
:104D9400930700782326F90293071000232AF902C7
:104DA400232E690383A7818213D5F741B715000029
:104DB4009385F5FF3375B5003305F5001355C540EC
:104DC4009397070193D70701B3F5B7001375F50F50
:104DD400EFF09F8303D6C18183D5018203D541823D
:104DE400EFF09F8F8320C1010324810183244101BB
:104DF400032901018329C100032A8100832A410078
:104E0400032B01001301010267800000678000008A
:104E1400130101FF232611002324810093071003AB
:104E2400630CF50893072003630EF50C9307300316
:104E3400630EF51093074003630EF51493075003B4
:104E4400630EF518930750076304F51E9307600774
:104E54006306F51E9307C0066308F51E9307C00496
:104E64006308F524930720076302F52A93072005B6
:104E7400630AF52C93077006630CF52E93077004F0
:104E84006304F532930720066306F5349307200480
:104E94006312F50683A7C181938707F823AEF180D7
:104EA4006356F03603D6C18183D5018203D541828E
:104EB400EFF09F826F00000423A00186EF20506C66
:104EC400370411F8232E04023706B0F8B7E5F505C8
:104ED4009385051037150300130505D4EFE05FFA39
:104EE40003A5011593050500EF3000249307500036
:104EF400232EF4028320C100032481001301010145
:104F0400678000001307100023A0E186EF2050679C
:104F1400370411F8232E04023706B0F8B7E5F50577
:104F24009385051037150300130505D4EFE05FF5ED
:104F34009387011503A5470093050500EF30C01EB4
:104F440093075000232EF4026FF0DFFA13072000BA
:104F540023A0E186EF20D062370411F8232E040247
:104F64003706B0F8B7E5F505938505103715030046
:104F7400130505D4EFE0DFF09387011503A587003F
:104F840093050500EF30401A93075000232EF402D6
:104F94006FF05FF61307300023A0E186EF20505E28
:104FA400370411F8232E04023706B0F8B7E5F505E7
:104FB4009385051037150300130505D4EFE05FEC66
:104FC4009387011503A5C70093050500EF30C015AD
:104FD40093075000232EF4026FF0DFF11307400013
:104FE40023A0E186EF20D059370411F8232E0402C0
:104FF4003706B0F8B7E5F5059385051037150300B6
:10500400130505D4EFE0DFE7938701153707000A9E
:1050140083A6C70003A6870083A5470003A507004E
:10502400EF30401A93075000232EF4026FF09FECE8
:1050340013050000EFF08FA46FF0DFEB13051000F1
:10504400EFF0CFA36FF01FEB83A781829387072034
:1050540023A4F182370710001307E7FF6358F70012
:10506400B70710009387F7FF23A4F18283A58182F9
:105074003795000013054505EFF0CF8A83A7818299
:1050840013D5F741B71500009385F5FF3375B500C7
:105094003305F5001355C5409397070193D70701CE
:1050A400B3F5B7001375F50FEFF00FD66FF09FE46B
:1050B40083A78182938707E023A4F182130700204A
:1050C4006344F70023A4E18283A58182379500001D
:1050D40013054505EFF00F8583A7818213D5F741AA
:1050E400B71500009385F5FF3375B5003305F5005A
:1050F4001355C5409397070193D70701B3F5B7003C
:105104001375F50FEFF04FD06FF0DFDE83A7418208
:105114009387070823A2F182371700001307E7FFDC
:105124006358F700B71700009387F7FF23A2F182B3
:1051340003D6C18183D5018203D54182EFF0CFD953
:105144006FF05FDB83A74182938707F823A2F18284
:10515400635CF00003D6C18183D5018203D541820B
:10516400EFF08FD76FF01FD923A201826FF09FFE5B
:1051740083A701829387070823A0F18237170000D1
:105184001307E7FF6358F700B71700009387F7FF8B
:1051940023A0F18203D6C18183D5018203D5418244
:1051A400EFF08FD36FF01FD583A70182938707F8A1
:1051B40023A0F182635CF00003D6C18183D5018210
:1051C40003D54182EFF04FD16FF0DFD223A00182EB
:1051D4006FF09FFE83A7C1819387070823AEF180F8
:1051E400371700001307E7FF6358F700B7170000ED
:1051F4009387F7FF23AEF18003D6C18183D5018263
:1052040003D54182EFF04FCD6FF0DFCE23AE0180A6
:105214006FF05FC9130101FE232E11009387818370
:1052240003A707002324E10083C747002306F100F6
:1052340083A701869387170023A0F18613074000F4
:105244006374F70023A0018683A701861307010175
:10525400B307F70003C587FFEFF09FBB8320C101AD
:105264001301010267800000130101FF23261100CE
:1052740023248100B70711F803A4470113743400F1
:1052840083A74181638C8702370711F8832747007E
:1052940093F7D7FF2322F700930730006308F40045
:1052A400B70711F803A447011374340093072000CF
:1052B4006300F402930710006304F40223AA8180BC
:1052C4008320C100032481001301010167800000D1
:1052D400379500001305C506EFE0DFE46FF01FFE0D
:1052E4003795000013050508EFE0DFE3EFF09FF2C8
:1052F4006FF0DFFC130101FF23261100232481003A
:105304003795000013054509EFE0DFE1B79500008C
:105314009385850C379500001305C50CEFE09FE0DD
:10532400EFE0DF95B70711F883A507043795000070
:105334001305C50DEFE01FDFEFF08FCE6F00000205
:105344003706B0F8B7E5F5059385051037850100F4
:105354001305056AEFE0DFB2EFF01FF1370501F83E
:10536400EFE05FA3E30E05FC370501F8EFE05FAB68
:1053740013040500B7950000938585E8370501F807
:10538400EFE0DFA593050400370501F8EFE05FA126
:10539400B71505009385C578370501F8EFE01FA41C
:1053A40013050400EFF0DFA66FF09FF90325450015
:1053B400135505011375F50F67800000130101FFF4
:1053C40023261100232481002322910013040500C5
:1053D4009384050013050400EFF05FFDE30C05FE64
:1053E400232094008320C1000324810083244100EE
:1053F4001301010167800000130101FF232611003E
:1054040023248100232291009304050013840500C2
:1054140083450400638A0500130414001385040003
:10542400EFF0DFF96FF0DFFE8320C1000324810079
:105434008324410013010101678000002320B5008B
:1054440067800000032505006780000063060500EF
:105454001305000067800000130101FF23261100DB
:10546400B795000093850510370501F8EFF0DFF8D4
:10547400130510008320C10013010101678000009F
:10548400130101FF232611002324810013040500C6
:105494009375F50F370501F8EFF05FF2130504007B
:1054A4008320C100032481001301010167800000EF
:1054B400130101FF23261100232481001304050096
:1054C4000345040063080500EFF09FFB1304140078
:1054D4006FF01FFF1305A000EFF09FFA1305000003
:1054E4008320C100032481001301010167800000AF
:1054F400130101FF2326110023248100232291009C
:1055040093040500370400401304F4FF338485003A
:105514001314240063460402B3D7840013F7F7007E
:10552400B79700009387C7B0B387E70083C5070028
:10553400370501F8EFF09FE81304C4FF6FF09FFDF7
:105544008320C1000324810083244100130101014D
:105554006780000003254500135505011375F50FF9
:1055640067800000130101FF23261100232481001A
:1055740023229100130405009384050013050400FD
:10558400EFF05FFDE30C05FE232094008320C100AF
:10559400032481008324410013010101678000007A
:1055A400B7470F0093870724B3D5F502B7C70000A8
:1055B400938787FF3306F600832706003385A50209
:1055C4003305F50083270600B307F540E3DC07FE47
:1055D40067800000130101FF2326110093050500D5
:1055E400370501F8EFF01FF88320C1001301010112
:1055F40067800000130101FF23261100232481008A
:105604001304050003450400630805001304140093
:10561400EFF05FFC6FF01FFF8320C10003248100C3
:105624001301010167800000130101FF232611000B
:105634002324810023229100930405001304C00154
:105644006F004002B3D7840013F7F700B797000048
:105654009387C7B0B387E70003C50700EFF09FF750
:105664001304C4FFE35004FE8320C100032481001B
:10567400832441001301010167800000130101FF2D
:105684002326110023248100232291009304050082
:105694001304C0016F004002B3D7840013F7F7006E
:1056A400B7970000938747B7B387E70003C50700A0
:1056B400EFF05FF21304C4FFE35004FE8320C10043
:1056C4000324810083244100130101016780000049
:1056D400130101FF232611001375F50FEFF09FEF5F
:1056E4008320C1001301010167800000130101FF41
:1056F40023261100EFF01FF08320C10013010101E4
:1057040067800000130101FD232611022324810276
:10571400232291029304050063460500130401004B
:105724006F00C0021305D002EFF09FFAB30490405B
:105734006FF0DFFE1307A000B3E7E40293870703CB
:105744002300F400B3C4E40213041400E39404FE3D
:1057540093070100E300F4FE6F0000011304F4FF5B
:1057640003450400EFF0DFF693070100E318F4FEAD
:105774008320C10203248102832441021301010313
:1057840067800000130101FF2326110013070000A6
:105794009307700063C0E70293162700930700FF86
:1057A400B397D700B377F500638607001307170094
:1057B4006FF01FFEEFF09FEC8320C1001301010185
:1057C40067800000130101FF232611001307000066
:1057D4009307700063C0E70293162700930700FF46
:1057E400B397D700B377F500638607001307170054
:1057F4006FF01FFEEFF05FE38320C100130101018E
:1058040067800000130101FC232E1100232C81006A
:10581400232A9100930405002322B1022324C10208
:105824002326D1022328E102232AF102232C010397
:10583400232E1103930741022326F10013040000D1
:105844006F00C0018327C100138747002326E100AE
:1058540003A50700EFF0DFE713041400B387840007
:1058640003C507006302050C930750026306F5069F
:10587400EFF01FE66FF05FFE8327C1001387470038
:105884002326E10003A50700EFF05FE66FF0DFFCDD
:105894008327C100138747002326E10003A50700DF
:1058A400EFF05FE66FF05FFB8327C10013874700CB
:1058B4002326E10003A50700EFF0DFF06FF0DFF926
:1058C4008327C100138747002326E10003A50700AF
:1058D400EFF05FEB6FF05FF813041400B3878400FC
:1058E40083C70700E38A07F613073006E38CE7F45F
:1058F40013073007E382E7F813074006E38AE7F863
:1059040013078005E382E7FA13078007E38AE7FABF
:1059140013076006E392E7FC37950000130585B88A
:10592400EFF0DFDC6FF05FF38320C101032481011A
:10593400832441011301010467800000130101FF66
:105944002326110003280500032848002390C500DE
:1059540023A2D50023A4E500832708001306000032
:10596400E78007008320C100130101016780000064
:10597400130101FF23261100232481002322910017
:1059840013040500938405000327C50513170701B5
:105994009306700013069000EFF05FFA83A7C4002B
:1059A400232EF40283A704012320F40403A7440153
:1059B4002322E40483A684012324D40493D78700F8
:1059C400B70640009386F6FFB3F7D7009387170016
:1059D4009396970093D66601232ED40693973701A6
:1059E400232CF4069357B70193F77700B79600007A
:1059F4009386461193972700B387F60083A7070081
:105A04001357870113773700131727003387E600EE
:105A140003270704B387E7022324F4068320C10085
:105A240003248100832441001301010167800000E5
:105A3400130101FE232E1100232C8100232A91003F
:105A4400232821012326310123244101232251014A
:105A5400130A050013840500930A00009304000050
:105A64009307100063CE571793850A0037950000FB
:105A740013054516EFF01FD993050000370912F8F6
:105A840013058900EFF09F9B1307000093060000A5
:105A9400130600009305040013050A00EFF01FEA43
:105AA4003706B0F8B7E5F505938505101305803E74
:105AB400EFF01FAF9305100013058900EFF01F9856
:105AC4001307A01A930650011306800093050400DF
:105AD40013050A00EFF09FE69305200013058900E3
:105AE400EFF0DF95130700009306500113067003CF
:105AF4009305040013050A00EFF05FE413090000A6
:105B04006390040A3706B0F8B7E9F50593850910E0
:105B140037C5000013050535EFF09FA89305400035
:105B2400B70412F813858400EFF05F9113070000A7
:105B340093065001130670039305040013050A002D
:105B4400EFF0DFDF9305500013858400EFF01F8F23
:105B540037071040930610001306900293050400C3
:105B640013050A00EFF09FDD8325C400379500007C
:105B740013050517EFF01FC98324C40093D4F4015F
:105B84003706B0F89385091037450F00130505242F
:105B9400EFF01FA11309190093079000E3D227F730
:105BA4006390040493071000639CFA003795000087
:105BB40013050518EFF01FC5130510006F00400F03
:105BC4003706B0F8B7E5F5059385051037450F009E
:105BD40013050524EFF0DF9C938A1A006FF05FE849
:105BE40013070000930670001306200093050400B9
:105BF40013050A00EFF09FD48327C4002326FA0478
:105C0400832704012328FA0483274401232AFA045E
:105C140083278401232CFA04130700009306500100
:105C2400130630009305040013050A00EFF01FD19A
:105C34008357E400232EFA049305040013050A0095
:105C4400EFF01FD30327CA05131707019306D001EA
:105C5400130670009305040013050A00EFF01FCE2D
:105C64000327CA051317070193065001130670038F
:105C74009305040013050A00EFF05FCC130720001E
:105C840093065001130660009305040013050A00EF
:105C9400EFF0DFCA1307002093065001130600013A
:105CA4009305040013050A00EFF05FC91305000013
:105CB4008320C101032481018324410103290101BB
:105CC4008329C100032A8100832A410013010102B0
:105CD40067800000130101FE232E1100232C810094
:105CE400232A91002328210123263101930405004E
:105CF40013890500930906001384060013070600A0
:105D04009306500113060002EFF05FC337078000CB
:105D14001307F7FF3307E40013179700330737011E
:105D2400930650011306100293050900138504001D
:105D3400EFF0DFC0130700009306D00113066002E2
:105D44009305090013850400EFF05FBF8320C101B0
:105D54000324810183244101032901018329C10012
:105D64001301010267800000130101FE232E1100BC
:105D7400232C8100232A9100232821012326310189
:105D84002324410123225101232061011309050029
:105D9400138B0500930A06009389060083270500E8
:105DA40003AA47001305C001EFB0CFB49304050064
:105DB40013050001EFB00FB4130405001306C0016E
:105DC4009305000013850400EFB0DFBD1306000146
:105DD4009305000013050400EFB0DFBC8327C90658
:105DE4002326F40023243401930710006388F90662
:105DF400930790012390F40023A4640193075001B6
:105E040023A2F40023205401930720002322F4004A
:105E140083270A0013060400938504001305090070
:105E2400E780070013850400EFB0CFAD130504002D
:105E3400EFB04FAD8320C1010324810183244101CC
:105E4400032901018329C100032A8100832A410017
:105E5400032B0100130101026780000093078001F6
:105E64002390F4006FF05FF9130101FE232E11005B
:105E7400232C8100232A9100232821012326310188
:105E8400232441012322510113090500938A0500AB
:105E9400130A0600938906001305C001EFB08FA50D
:105EA4009304050013050001EFB0CFA4130405000B
:105EB4001306C0019305000013850400EFB09FAEE4
:105EC400130600019305000013050400EFB09FAD15
:105ED4008327C9062326F4002324340193071000E2
:105EE400638AF906930720012390F40023A4540144
:105EF4009307500123A2F4002320440193071000C8
:105F04002322F4008327090083A7470083A70700FF
:105F1400130604009385040013050900E7800700B5
:105F240013850400EFB00F9E13050400EFB08F9D9E
:105F34008320C10103248101832441010329010138
:105F44008329C100032A8100832A4100130101022D
:105F540067800000930710012390F4006FF01FF98D
:105F6400130101FC232E1102232C8102232A910206
:105F7400232821032326310323244103232251030D
:105F840023206103232E7101232C8101232A9101F3
:105F94002328A1012326B10193090500138A0500D2
:105FA400130D0600938C060013090700138C0700D9
:105FB400930B0800138B080083240104832A4104F3
:105FC400832D81049307001063FAB70D13040010A6
:105FD400131494001306040093050A0013850900A2
:105FE400EFB0DF936310050C939D3D013305A94188
:105FF400B335A900330C9C41B305BC4013064006DD
:1060040093060000EF20405A13060500938605000E
:1060140013850D0093050000EF20005913090500B6
:1060240033857441B3B5A400B38A6A41B385BA40D9
:106034001306400693060000EF20005713060500E0
:106044009386050013850D0093050000EF20C055CD
:106054008327C10493F7F73F6382070A13050000FF
:106064008320C103032481038324410303290103FF
:106074008329C102032A8102832A4102032B0102DC
:10608400832BC101032C8101832C4101032D0101C8
:10609400832DC100130101046780000013840D00E7
:1060A4006FF01FF3032601058325C1043795000013
:1060B4001305C519EFF00FF593050000935724005D
:1060C40063FAF502B387B90003C60700B307BA0041
:1060D40083C607006316D600938515006FF01FFE74
:1060E400379500001305451BEFF0CFF113051000A1
:1060F4006FF01FF7130500006FF09FF613070500FC
:1061040093060900032601058325C1043795000081
:106114001305C51DEFF00FEF130500006FF05FF4DA
:10612400130101FF2326110023248100232291005F
:1061340023202101930405001389050013040000A2
:10614400637C2401EFB09F95B38784002380A7006C
:10615400130414006FF0DFFE03C50400EFB0DF92F8
:106164008320C1000324810083244100032901000A
:106174001301010167800000032545001355050143
:106184001375F50F67800000130101FF232611002A
:106194002324810023229100130405009384050025
:1061A40013050400EFF05FFDE30C05FE23209400CB
:1061B4008320C100032481008324410013010101D1
:1061C40067800000130101FF2326110093050500D9
:1061D400370501F8EFF05FFB8320C10013010101D3
:1061E40067800000130101FF23261100232481008E
:1061F4001304050003450400630805001304140098
:10620400EFF05FFC6FF01FFF8320C10003248100C7
:106214001301010167800000130101FF232611000F
:106224002324810023229100930405001304C00158
:106234006F004002B3D7840013F7F700B79700004C
:106244009387C7B0B387E70003C50700EFF09FF754
:106254001304C4FFE35004FE8320C100032481001F
:10626400832441001301010167800000130101FF31
:106274002326110023248100232291009304050086
:106284001304C0016F004002B3D7840013F7F70072
:10629400B7970000938747B7B387E70003C50700A4
:1062A400EFF05FF21304C4FFE35004FE8320C10047
:1062B400032481008324410013010101678000004D
:1062C400130101FF232611001375F50FEFF09FEF63
:1062D4008320C1001301010167800000130101FF45
:1062E40023261100EFF01FF08320C10013010101E8
:1062F40067800000130101FD23261102232481027B
:10630400232291029304050063460500130401004F
:106314006F00C0021305D002EFF09FFAB30490405F
:106324006FF0DFFE1307A000B3E7E40293870703CF
:106334002300F400B3C4E40213041400E39404FE41
:1063440093070100E300F4FE6F0000011304F4FF5F
:1063540003450400EFF0DFF693070100E318F4FEB1
:106364008320C10203248102832441021301010317
:1063740067800000130101FF2326110013070000AA
:106384009307700063C0E70293162700930700FF8A
:10639400B397D700B377F500638607001307170098
:1063A4006FF01FFEEFF09FEC8320C1001301010189
:1063B40067800000130101FF23261100130700006A
:1063C4009307700063C0E70293162700930700FF4A
:1063D400B397D700B377F500638607001307170058
:1063E4006FF01FFEEFF05FE38320C1001301010192
:1063F40067800000032505041375150067800000FD
:1064040013070504930700212320F50483270700BD
:1064140093F70701E39C07FE67800000130101FF67
:10642400232611002324810013040500130504000E
:10643400EFF05FFCE31C05FE8320C1000324810010
:106444001301010167800000130101FF23261100DD
:10645400130700422320E504EFF05FFC8320C10012
:1064640013010101678000008327450093F707109B
:10647400E39C07FE67800000130101FF232611003F
:10648400130710302322E500EFF01FFE8320C10024
:106494001301010167800000032585001375F50FC2
:1064A400678000000325C5001375F50F3335A00080
:1064B400678000000325C5001375F50F133515001B
:1064C40067800000130101FC232E1100232C81009E
:1064D400232A9100930405002322B1022324C1023C
:1064E4002326D1022328E102232AF102232C0103CB
:1064F400232E1103930741022326F1001304000005
:106504006F00C0018327C100138747002326E100E1
:1065140003A50700EFF0DFDA13041400B387840047
:1065240003C507006302050C930750026306F506D2
:10653400EFF01FD96FF05FFE8327C1001387470078
:106544002326E10003A50700EFF05FD96FF0DFFC1D
:106554008327C100138747002326E10003A5070012
:10656400EFF05FD96FF05FFB8327C100138747000B
:106574002326E10003A50700EFF0DFE36FF0DFF966
:106584008327C100138747002326E10003A50700E2
:10659400EFF05FDE6FF05FF813041400B38784003C
:1065A40083C70700E38A07F613073006E38CE7F492
:1065B40013073007E382E7F813074006E38AE7F896
:1065C40013078005E382E7FA13078007E38AE7FAF3
:1065D40013076006E392E7FC37950000130585B8BE
:1065E400EFF0DFCF6FF05FF38320C101032481015B
:1065F400832441011301010467800000130101FF9A
:106604002326110023248100232291001304050072
:1066140093840500377501F8EFF09FDE377701F8B2
:10662400B7170000938747B32320F700377501F8A5
:10663400EFF09FE4377501F8EFF0DFE7EFE01FE1DB
:106644006300050213041000130504008320C10035
:1066540003248100832441001301010167800000A9
:106664009357840037170000130707B0B3E7E70018
:10667400377701F82320F700377501F8EFF0DFDFF3
:10668400377501F8EFF01FE3EFE05FDC6306050008
:10669400130410006FF05FFB1374F40FB7170000BE
:1066A400938707B03364F400B77701F823A0870019
:1066B400377501F8EFF05FDC377501F8EFF09FDF15
:1066C400EFE0DFD863060500130410006FF0DFF776
:1066D400B7170000938707B0B3E4F400B77701F865
:1066E40023A09700377501F8EFF01FD9377501F82B
:1066F400EFF05FDCEFE09FD51304050063060500AF
:10670400130410006FF05FF4377501F8EFF0DFD376
:106714006FF09FF3130101FE232E1100232C81003F
:10672400232A910023282101232631019304050003
:10673400377501F8EFF0DFCC377901F83714000032
:10674400930744B32320F900377501F8EFF0DFD243
:10675400377501F8EFF01FD6EFE05FCF93D78400D1
:10676400930904B0B3E737012320F900377501F822
:10677400EFF09FD0377501F8EFF0DFD3EFE01FCDD6
:1067840093F4F40FB3E4340123209900377501F82E
:10679400EFF09FCE377501F8EFF0DFD1EFE01FCBBC
:1067A400377501F8EFF05FCA377501F8EFF05FC590
:1067B400930754B32320F900377501F8EFF0DFCBCA
:1067C400377501F8EFF01FCFEFE05FC81304F4BF93
:1067D40023208900377501F8EFF01FCA377501F8D7
:1067E400EFF05FCCEFE09FC6377501F8EFF0DFCA3A
:1067F4001374F50F377501F8EFF01FC51305040086
:106804008320C1010324810183244101032901015F
:106814008329C1001301010267800000130101FFF5
:106824002326110023248100232291002320210107
:10683400130905009384050093D5250037A50000AE
:106844001305C58BEFF01FC81304000063529402B4
:1068540093172400B307F90083C5270003D5070065
:10686400EFF0DFD963140502130414006FF01FFE68
:10687400130500008320C100032481008324410008
:1068840003290100130101016780000013051000B2
:106894006FF05FFE130101FF232611009305000032
:1068A40013050010EFF09FD5630A050013051000CF
:1068B4008320C100130101016780000093052013A8
:1068C400379500001305C522EFF05FF5631A050E36
:1068D40093052007379500001305C5221305854C41
:1068E400EFF0DFF36312050E93052000130510107B
:1068F400EFF0DFD063060500130510006FF05FFBB7
:106904009305900013050034EFF05FCF6306050094
:10691400130510006FF0DFF99305500913051034C7
:10692400EFF0DFCD63060500130510006FF05FF88C
:106934009305F00013052020EFF05FCC63060500FB
:10694400130510006FF0DFF69305600C130530207B
:10695400EFF0DFCA63060500130510006FF05FF562
:106964009305300013054020EFF05FC9630605006E
:10697400130510006FF0DFF393050000130550209A
:10698400EFF0DFC763060500130510006FF05FF238
:106994009305100013054011EFF05FC66306050070
:1069A400130510006FF0DFF09305100013050010BD
:1069B400EFF0DFC4E30E05EE130510006FF05FEF98
:1069C400130520006FF0DFEE130530006FF05FEE6B
:1069D400B7470F0093870724B3D5F502B7C7000064
:1069E400938787FF3306F600832706003385A502C5
:1069F4003305F50083270600B307F540E3DC07FE03
:106A040067800000032505041375150067800000E6
:106A140013070504930700212320F50483270700A7
:106A240093F70701E39C07FE67800000130101FF51
:106A340023261100232481001304050013050400F8
:106A4400EFF05FFCE31C05FE8320C10003248100FA
:106A54001301010167800000130101FF23261100C7
:106A6400130700422320E504EFF05FFC8320C100FC
:106A740013010101678000008327450093F7071085
:106A8400E39C07FE67800000130101FF2326110029
:106A9400130710302322E500EFF01FFE8320C1000E
:106AA4001301010167800000032585001375F50FAC
:106AB400678000000325C5001375F50F3335A0006A
:106AC400678000000325C5001375F50F1335150005
:106AD40067800000130101FF232611002324810095
