:02000004F90001
:1000000097110000938181C323A00182732540F1E1
:1000100015C503A5018275DD0F0020020F10000039
:1000200083A7C181014581450146828723AEA18016
:100030000F001001054523A0A182828013818192C7
:1000400013850181938501811386C18163FAC500FF
:100050008322050023A0550011059105E3EAC5FEA2
:100060001385C181938581826377B50023200500C4
:0E0070001105E36DB5FE9D2E9D2601A0828038
:10007E00DC451CC59C41FD17D8412207D98F9845F8
:10008E004207D98F5CC58280B7470F00938707243C
:10009E00B3D5F502B167E1173E961C423385A50232
:1000AE003E951C42B307F540E3DD07FE8280011149
:1000BE0006CEA1473EC002C202C49307D00C3EC674
:1000CE008A85370501E86D37F24005618280484127
:1000DE00420541818280484141818280411106C69C
:1000EE0022C426C22A84AE842285D53775DD93E4D8
:1000FE00041004C0B2402244924441018280411156
:10010E0006C622C42A842285D93775DD93070020BE
:10011E001CC02285C93775DD08401375F50FB24036
:10012E00224441018280411106C622C426C22A847D
:10013E00AE842285693F75DD856793870788DD8CE0
:10014E0004C0B2402244924441018280411106C64D
:10015E0022C426C22A84AE842285953F75DD85672A
:10016E0093870780DD8C04C0B24022449244410143
:10017E0082809C41D8410607D98F98451207D98FA6
:10018E001CC5DC451CD19C495CD1DC491CD59C4D61
:10019E005CD58280411106C622C42A843706B0F887
:1001AE00B735530B938505B80545F93D22850537BF
:1001BE0093070010E31CF5FEB240224441018280F9
:1001CE00411106C68D37B24041018280411106C6EB
:1001DE00B53FB24041018280797106D622D42A847D
:1001EE0002C202C402C689473EC815473ACA3ECC6F
:1001FE009D473ECE4C00B53F2285693FB2502254FA
:10020E0045618280411106C622C426C22A84AE846C
:10021E00E137A68522855D3FB240224492444101DA
:10022E008280411106C69305B00A4D3DB240410190
:10023E008280411106C69307D0096308F600930524
:10024E00900E693DB240410182809305900279354E
:10025E00D5BF411106C622C426C24AC02A84AE8426
:10026E008537930500092285953D81452285BD354B
:10027E0081452285A535814522858D3522854135DD
:10028E002A893706B0F8B735530B938505B8130591
:10029E00C012DD3BA6852285153F2285E53DA6854C
:1002AE002285393F4A86A68522856137A685228515
:1002BE00313F2285C535B240224492440249410164
:1002CE008280411106C622C426C22A84AE84CD3D48
:1002DE002285813FA6852285D53D2285653D37063F
:1002EE00B0F8B735530B938505B813054006693B37
:1002FE00B2402244924441018280011106CE22CCAA
:10030E0026CA4AC84EC62A89AE843284B689AD45FD
:10031E00F13393D5040193F5F50F4A85C13393D587
:10032E00840093F5F50F4A85553B93F5F40F4A85F6
:10033E00753381454A855D33814463F934014A85BD
:10034E007D3B2300A40085040504C5BFF240624432
:10035E00D2444249B24905618280011106CE22CCB7
:10036E0026CA4AC84EC652C42A84AE843289B68979
:10037E003A8AB935D2864E86CA852285BD3FA68574
:10038E002285A935F2406244D2444249B249224AFA
:10039E0005618280411106C68145370503E89D350A
:1003AE008145370503E8313F8145370503E855356B
:1003BE00370730008566370660008145370503E84C
:1003CE00693F0565A93985678297B24041018280F0
:1003DE00411106C6E9397D3FB2404101828041118B
:1003EE0022C44AC01384E1801389E1803309894015
:1003FE0006C626C2135929406309090081441C40D0
:10040E00850411048297E31C99FE1384E1801389FD
:10041E00E180330989401359294063090900814459
:10042E001C40850411048297E31C99FEB2402244BD
:08043E00924402494101828051
:0C044600000000000000000000000000AA
:04000005F9000000FE
:00000001FF
