:02000004F90001
:1000000097110000938181C223A00182732540F1E2
:1000100015C503A5018275DD0F0020020F10000039
:1000200083A7C181014581450146828723AEA18016
:100030000F001001054523A0A182828013818192C7
:100040001385C1809385C1801386C18163FAC50081
:100050008322050023A0550011059105E3EAC5FEA2
:100060001385C181938581826377B50023200500C4
:0E0070001105E36DB5FE9526912E01A082804C
:10007E00DC451CC59C41FD17D8412207D98F9845F8
:10008E004207D98F5CC58280B7470F00938707243C
:10009E00B3D5F502B167E1173E961C423385A50232
:1000AE003E951C42B307F540E3DD07FE8280011149
:1000BE0006CEA1473EC002C202C49307800D3EC6C3
:1000CE008A85370501E86D37F24005618280484127
:1000DE00420541818280484141818280411106C69C
:1000EE0022C426C22A84AE842285D53775DD93E4D8
:1000FE00041004C0B2402244924441018280411156
:10010E0006C622C42A842285D93775DD93070020BE
:10011E001CC02285C93775DD08401375F50FB24036
:10012E00224441018280411106C622C426C22A847D
:10013E00AE842285693F75DD856793870788DD8CE0
:10014E0004C0B2402244924441018280411106C64D
:10015E0022C426C22A84AE842285953F75DD85672A
:10016E0093870780DD8C04C0B24022449244410143
:10017E0082809C41D8410607D98F98451207D98FA6
:10018E001CC5DC451CD19C495CD1DC491CD59C4D61
:10019E005CD58280411106C622C42A843706B0F887
:1001AE00B7C5EB0B938505200545F93D228505372F
:1001BE0093070010E31CF5FEB240224441018280F9
:1001CE00411106C68D37B24041018280411106C6EB
:1001DE00B53FB24041018280797106D622D42A847D
:1001EE0002C202C402C689473EC815473ACA3ECC6F
:1001FE009D473ECE4C00B53F2285693FB2502254FA
:10020E0045618280411106C622C426C22A84AE846C
:10021E00E137A68522855D3FB240224492444101DA
:10022E008280411106C69305B00A4D3DB240410190
:10023E008280411106C69307D0096308F600930524
:10024E00900E693DB240410182809305900279354E
:10025E00D5BF411106C622C426C24AC02A84AE8426
:10026E0085379305F0092285953D2285493D2A89DA
:10027E003706B0F8B7C5EB0B938505201305C012F2
:10028E002135A6852285993722852937A68522858F
:10029E00053F4A86A6852285693FA68522853D377C
:1002AE002285CD3DB24022449244024941018280D2
:1002BE00411106C622C426C22A84AE841137228575
:1002CE008D37A685228519372285E9353706B0F890
:1002DE00B7C5EB0B93850520130540067533B24069
:1002EE002244924441018280011106CE22CC26CABC
:1002FE004AC84EC62A89AE843284B689AD45F93BCA
:10030E0093D5040193F5F50F4A85C93B93D5840027
:10031E0093F5F50F4A85D93393F5F40F4A857D3B56
:10032E0081454A85653B814463F934014A85C13B69
:10033E002300A40085040504C5BFF2406244D244E4
:10034E004249B24905618280011106CE22CC26CAED
:10035E004AC84EC652C42A84AE843289B6893A8AB5
:10036E008535D2864E86CA852285BD3FA6852285D5
:10037E00B13DF2406244D2444249B249224A05613B
:10038E008280411106C68145370503E8A53D8145AA
:10039E00370503E8313F8145370503E85D3D3707F3
:1003AE003F008566370660008145370503E8693FE3
:1003BE000565B53185678297B24041018280411152
:1003CE0006C6F5317D3FB24041018280411122C403
:1003DE004AC01384C1801389C1803309894006C67F
:1003EE0026C2135929406309090081441C40850423
:1003FE0011048297E31C99FE1384C1801389C18076
:10040E0033098940135929406309090081441C406E
:10041E00850411048297E31C99FEB2402244924453
:06042E0002494101828039
:0E0434000000000000000000000000000000BA
:04000005F9000000FE
:00000001FF
