:10100000972105009381018517310500130181A601
:1010100017850000130545A0978500009385C59F9F
:101020001386C18463FCC5008322050023A05500FC
:101030001305450093854500E3E8C5FE1385C1848B
:10104000938501226378B500232005001305450030
:10105000E36CB5FEEF000001EF30905F6F00000021
:0410600067800000A5
:10106400130101FF232481002320210117840000A0
:101074001304449A178900001309C9993309894054
:10108400232611002322910013592940630E0900DD
:101094009304000083270400938414001304440081
:1010A400E7800700E31899FE178400001304849670
:1010B40017890000130909963309894013592940F7
:1010C400630E090093040000832704009384140032
:1010D40013044400E7800700E31899FE8320C1004D
:1010E4000324810083244100032901001301010129
:1010F40067800000938741839305050003A50700DB
:101104006F004001938741839305050003A5070001
:101114006F005036130101FD232291022320210385
:101124002326110223248102232E3101232C410181
:10113400232A5101232861012326710123248101DB
:10114400232291019384B5009307600113090500DC
:1011540063E697069307000163ECB722EF00501291
:1011640093040001930780011306200097090500EA
:101174009389C96BB387F90003A44700138787FFDA
:101184006300E426832744008326C40003268400E6
:1011940093F7C7FFB307F40003A747002326D6003D
:1011A40023A4C600136717001305090023A2E70050
:1011B400EF00500D130584006F00401E93F484FF6C
:1011C40063C8041C63E6B41CEF00900B9307701F04
:1011D40063F4974A93D79400638C071E1307400067
:1011E4006368F74293D764001386970313858703D4
:1011F400931636009709050093894963B386D9008D
:1012040003A44600938686FF638C860283274400EA
:101214009305F00093F7C7FF3387974063C0E50257
:10122400635207380324C400638C86008327440078
:1012340093F7C7FF33879740E3D4E5FE1306050011
:1012440003A40901170805001308C85E6308041BFA
:10125400832544001307F00093F5C5FFB387954039
:101264006342F74417070500232C075D17070500A1
:101274002326075D63D807409307F01F63EAB7325C
:1012840093D53500938715009397370003A549003C
:10129400B387F90083A6070093D5254013071000F0
:1012A4003317B7003367A700938587FF2326B4005D
:1012B4002324D4009705050023ACE55623A087001A
:1012C40023A686009357264093061000B396F60093
:1012D4006360D714B3F7E60063940702939616008D
:1012E4001376C6FFB3F7E60013064600639A0700B9
:1012F40093961600B3F7E60013064600E38A07FE4A
:101304001305F00093183600B3881901938508007B
:101314001303060003A4C500639A85006F0080319F
:10132400635407320324C400638685308327440052
:1013340093F7C7FF33879740E354E5FE8326C40041
:101344000326840093E514002322B4002326D60048
:1013540023A4C600B30494009706050023A2964E66
:101364009706050023AC964C9366170023A6040148
:1013740023A4040123A2D400B307F4001305090035
:1013840023A0E700EF000070130584006F00000144
:101394009307C0002320F900130500008320C10235
:1013A4000324810283244102032901028329C10108
:1013B400032A8101832A4101032B0101832BC100EC
:1013C400032C8100832C410013010103678000007A
:1013D40093060020130600041305F0036FF09FE149
:1013E40003A4C70013062600E39E87D803A40901BB
:1013F4001708050013080844E31C04E503A7490083
:101404009357264093061000B396F600E374D7EC86
:1014140003A48900832A440093FBCAFF63E89B006A
:10142400B3879B401307F0006348F7149387C18880
:10143400138CC18283AA070003270C009307F0FFD3
:10144400330A7401B38A54016306F734B7170000F2
:101454009387F700B38AFA00B7F7FFFFB3FAFA00ED
:1014640093850A0013050900EF00C0689307F0FF95
:10147400130B05006306F52863624529938C4189A3
:1014840083A70C00B387FA0023AAF1881387070007
:101494006306AA3A83260C009307F0FF638EF63A9C
:1014A400B3074B41B387E70023AAF188137C7B0081
:1014B40063060C30330B8B41B7170000130B8B0002
:1014C400138AF7FFB30A5B019387870033F74A0156
:1014D400B3878741B387E74033FA470193050A008E
:1014E40013050900EF0000619307F0FF6300F53C6A
:1014F40033056541B30A450183A70C0017070500AE
:10150400232A673393EA1A00B307FA0023AAF1885F
:1015140023225B01630634351306F00063767635C7
:101524008326440013874BFF137787FF93F6160037
:10153400B3E6E6002322D40093055000B306E4008A
:1015440023A2B60023A4B600636CE636832A4B00BC
:1015540013040B0013874188032707006374F70003
:1015640023A2F1881387818803270700637EF71875
:1015740023A4F1886F00401913E714002322E40028
:10158400B3049400170705002326972A93E717004E
:101594001305090023A2F400EF00C04E13058400D4
:1015A4006FF0DFDF8326C400032684006FF09FBE44
:1015B40093D79500130740006378F712130740018F
:1015C4006368F7229386C7051387B7059396360099
:1015D400B386D90083A70600938686FF6380F61C32
:1015E40003A747001377C7FF63F6E50083A78700C7
:1015F400E398F6FE83A6C70003A749002326D40078
:101604002324F40023A4860023A687006FF09FCB35
:1016140013074001637CF710130740056368F71E46
:1016240093D7C4001386F7061385E706931636008E
:101634006FF05FBC13031300937733009385850029
:10164400E39A07CC6F004010B307F40003A74700E8
:101654008326C400032684001367170023A2E7002F
:101664002326D6001305090023A4C600EF008041F9
:10167400130584006FF09FD213D63400938784003F
:101684006FF0DFAEB305B40083A74500130509006E
:1016940093E7170023A2F500EF00C03E1305840072
:1016A4006FF0DFCF13E714002322E400B3049400A7
:1016B40017070500232697181707050023209718F6
:1016C40013E7170023A6040123A4040123A2E400C2
:1016D400B305B4001305090023A0F500EF00803A18
:1016E400130584006FF09FCB93D76500938697030F
:1016F40013878703939636006FF09FED63063413C8
:1017040003A48900832A440093FACAFFB3879A404A
:1017140063E69A001307F000E340F7E613050900B7
:10172400EF004036130500006FF05FC71386C7054E
:101734001385B705931636006FF0DFAB83A78800D7
:101744001306F6FF6398171D93773600938888FF76
:10175400E39607FE03A7490093C7F6FFB3F7E70034
:10176400170705002326F70C93961600E3E2D7CA61
:10177400E38006CA33F7F600631A0700939616004F
:1017840033F7F60013034300E30A07FE13060300CE
:101794006FF05FB7938A0A016FF09FCC03A54900ED
:1017A40093552740130710003317B7003367A7007A
:1017B4009705050023AEE5066FF05FE4B717000058
:1017C4001387F7FF330A5B01337AEA00B387474193
:1017D40033FAE70093050A0013050900EF0080318E
:1017E4009307F0FFE316F5D0130A00006FF0DFD083
:1017F400130740056360F70893D7C5009386F7067F
:101804001387E706939636006FF09FDC13074015A5
:101814006360F70893D7F400138687071385770767
:10182400931636006FF01F9D938C418983A70C009B
:101834003387FA0023AAE1886FF0DFC593164A01C3
:10184400E39A06C403A48900B38A5B0193EA1A00ED
:10185400232254016FF01FD023A661836FF01FC5AC
:1018640013040B006FF01FCF930710002322FB001B
:101874006FF0DFEA130740156362F70693D7F500AC
:101884009386870713877707939636006FF05FD4A4
:10189400130740556362F70693D724011386D707CD
:1018A4001385C707931636006FF0DF94130C8CFF73
:1018B400B38A8A01B38A6A41130A00006FF0DFC356
:1018C4009305840013050900EF00C03A03A48900BE
:1018D40083A70C00832A44006FF0DFC71307405529
:1018E4006364F70293D725019386D7071387C70745
:1018F400939636006FF0DFCD9306803F1306F00712
:101904001305E0076FF01F8F9306803F1307E0076E
:101914006FF01FCC83A749006FF01FE593073000D9
:1019240063F8C702B367B50093F737009306300036
:10193400639207060327050083A70500631CF704C9
:101944001306C6FF1305450093854500E3E4C6FE70
:101954009307F6FF630C06020347050083C60500E0
:10196400631ED70213871700930715003305E5009C
:101974006F00400103C7070083C605009387170063
:10198400631ED70093851500E396A7FE1305000098
:10199400678000009307F6FF6FF01FFC3305D74004
:1019A400678000001303F00013070500637EC30281
:1019B4009377F7006390070A63920508937606FF0E
:1019C4001376F600B386E6002320B7002322B7007F
:1019D4002324B7002326B70013070701E366D7FEC5
:1019E4006314060067800000B306C3409396260084
:1019F40097020000B38656006780C6002307B7002D
:101A0400A306B7002306B700A305B7002305B70054
:101A1400A304B7002304B700A303B7002303B7004C
:101A2400A302B7002302B700A301B7002301B70044
:101A3400A300B7002300B7006780000093F5F50FFB
:101A440093968500B3E5D50093960501B3E5D500DB
:101A54006FF0DFF69396270097020000B3865600D6
:101A640093820000E78006FA93800200938707FFC1
:101A74003307F7403306F600E378C3F66FF0DFF37D
:101A840067800000678000009387418383A7070075
:101A940023A4A70A23A6070A67800000938741832B
:101AA40003A80700B785954C9385D5F28326880A49
:101AB4000327C80AB387B60213861700B337F600A4
:101AC4002324C80A37F651581306D6423386C60271
:101AD4003307B702B3B6B6023307C7003307D700DC
:101AE400B387E700139517002326F80A135515004A
:101AF40067800000130101FF232481001304050003
:101B04001385050023AC012023261100EF60906AA1
:101B14009307F0FF630AF5008320C10003248100CA
:101B240013010101678000009387812183A70700C7
:101B3400E38407FE2320F4008320C10003248100F2
:101B44001301010167800000130101FE232C8100B1
:101B5400232A91002328210123263101138405001F
:101B6400232E110097090500938949CC1309050018
:101B7400EFF01FF183A68900371700009307F7FEE3
:101B840083A446003384874093F4C4FF3304940051
:101B94001354C4001304F4FF1314C400634EE4008C
:101BA4009305000013050900EFF0DFF483A7890013
:101BB400B38797006306F50213050900EFF09FEC65
:101BC4008320C101032481018324410103290101EC
:101BD4008329C1001305000013010102678000007E
:101BE400B305804013050900EFF0DFF09307F0FF21
:101BF4006306F5049387418983A7070003A7890037
:101C0400B384844093E414003384874013050900AB
:101C14002322970023AA8188EFF0DFE68320C10105
:101C24000324810183244101032901018329C10083
:101C340013051000130101026780000093050000E2
:101C440013050900EFF01FEB03A789009306F000CA
:101C5400B307E540E3D2F6F69386C18283A6060075
:101C640093E717002322F7003305D54023AAA18860
:101C74006FF09FF4638E0512130101FF232481008A
:101C840023229100138405009304050023261100E8
:101C9400EFF01FDF8325C4FF130784FF170505003A
:101CA4001305C5B893F7E5FF3306F700832646000E
:101CB4000328850093F6C6FF6304C81A2322D600BE
:101CC40093F515003308D6006394050A032384FFB3
:101CD40083254800970805009388C8B533076740F3
:101CE40003288700B387670093F51500630418156C
:101CF4000323C70023266800232403016380051EF1
:101D040093E617002322D7002320F6009306F01F42
:101D140063ECF60A93D73700938617009396360040
:101D2400832545003305D5000326050093D62740B7
:101D340093071000B397D700B3E7B700930685FF66
:101D44002326D7002324C7009706050023A2F6AE56
:101D54002320E5002326E600032481008320C1001C
:101D64001385040083244100130101016FF09FD106
:101D74008325480093F51500639E0502B387D700B9
:101D840097080500938808AB8326860013E817009C
:101D9400B305F700638016170326C60023A6C60002
:101DA4002324D6002322070123A0F5006FF01FF699
:101DB4006780000093E61700232ED4FE2320F6004C
:101DC4009306F01FE3F8F6F493D697001306400049
:101DD4006364D60E93D667009385960313868603B1
:101DE40093953500B305B50083A60500938585FF5B
:101DF4006384D51203A646001376C6FF63F6C700B4
:101E040083A68600E398D5FE83A5C6002326B700E3
:101E14002324D7000324810023A4E5008320C100E8
:101E2400138504008324410023A6E6001301010165
:101E34006FF05FC563940514832586000326C600EE
:101E4400B387F60093E6170023A6C5002324B60043
:101E54002322D7003307F7002320F7006FF0DFEFCA
:101E640093F51500B387D70063900502832584FF9B
:101E74003307B7408326C70003268700B387B7001C
:101E84002326D60023A4C6009386018313E61700F5
:101E940083A606002322C70017060500232CE69814
:101EA400E3ECD7EA9387C18883A507001385040070
:101EB400EFF09FC96FF05FEA130640016374D60226
:101EC40013064005636AD60693D6C7009385F606C3
:101ED4001386E606939535006FF0DFF0B387D700DD
:101EE4006FF09FEA9385C6051386B6059395350072
:101EF4006FF05FEF9706050023A4E69497060500AC
:101F040023AEE69223261701232417012322070177
:101F140023A0F5006FF05FE403254500930710004C
:101F2400135626403396C7003366A600970705006C
:101F340023A0C7906FF09FED13064015636CD60085
:101F440093D6F70093858607138676079395350015
:101F54006FF05FE913064055636CD60093D62701F2
:101F64009385D6071386C607939535006FF09FE7D0
:101F74009305803F1306E0076FF0DFE693E6170052
:101F84002322D7002320F6006FF01FDD130101FF89
:101F9400232481001384050083A5050023229100D6
:101FA400232611009304050063840500EFF01FFE4F
:101FB40093050400032481008320C10013850400D9
:101FC40083244100130101016FF0DFCA9387418329
:101FD40083A707006382A7100327C504130101FE2A
:101FE400232A9100232E1100232C81002328210170
:101FF400232631019304050063020704130900003A
:1020040093090008B307270183A50700638E050021
:1020140003A4050013850400EFF0DFC59305040055
:10202400E31804FE03A7C40413094900E31C39FDA3
:102034009305070013850400EFF0DFC383A50404B0
:102044006386050013850400EFF0DFC283A58414C2
:10205400638005021389C414638C250103A405005D
:1020640013850400EFF01FC193050400E31889FEF3
:1020740083A544056386050013850400EFF09FBF24
:1020840083A78403638C070283A7C4031385040016
:10209400E780070083A5042E6382050203248101DF
:1020A4008320C101032901018329C1001385040090
:1020B40083244101130101026FF05FED8320C1010C
:1020C4000324810183244101032901018329C100DF
:1020D400130101026780000067800000B7470F000A
:1020E40093870724B3D5F502B7C70000938787FF0A
:1020F4003306F600832706003385A5023305F50071
:1021040083270600B307F540E3DC07FE6780000081
:1021140013051000678000001305000067800000AD
:1021240083270500B385B70023A0C500678000009E
:1021340083270500B385B70003A505006780000069
:10214400130101FE232E1100232C8100232A910068
:102154002328210123263101130905009384050056
:102164000324850003A6850093058010130504004D
:10217400EFF01FFB8326440103A706001377170023
:1021840083A746009397170093F72700B367F700D8
:1021940003A78600131727001377C7003367F700D8
:1021A40083A7C6009397470093F7070133E7E70037
:1021B40083A706019397570093F70702B3E7E70055
:1021C40003A7440093761700638A06029376870078
:1021D400638E0606B7060300B3E7D700937647007D
:1021E40063860600B7060800B3E7D7001377070134
:1021F4006306070037071000B3E7E700032704016D
:10220400630C070683D60400130730036380E606D5
:1022140083D90400939989013707003FB3F9E90092
:10222400B3E93701B70712F883A7870093F71700BC
:102234006380070C3706B0F8B7E5F50593850510FC
:1022440013051000EFF09FE96FF0DFFD9376270090
:1022540063880600B7060100B3E7D7006FF01FF8E4
:10226400B7060200B3E7D7006FF05FF73707200027
:10227400B3E7E7006FF0DFF903D704001307A7FF04
:10228400131607011356060193063001E3E2C6F85C
:1022940013172600B7960000938686A13307D7004C
:1022A400032707006700070037072000B3E7E700AC
:1022B4006FF01FF637072000B3E7E7006FF05FF514
:1022C40037072000B3E7E7006FF09FF437072000DB
:1022D400B3E7E7006FF0DFF337072000B3E7E70069
:1022E4006FF01FF337072000B3E7E7006FF05FF2EA
:1022F400138609009305C01013050400EFF05FE294
:102304003706B0F8B7E5F5059385051013054006C3
:10231400EFF0DFDC03A741BD93071000E31CF7FED9
:10232400938741BD23A0070083A7C7016392070ACF
:10233400938741BD83A70702639C0708938741BD28
:1023440083A7470263960708938741BD83A7870243
:102354006390070883A7440013F7F7006304070892
:1023640093F7270063840704930500111305040001
:10237400EFF01FDC23A6A40093054011130504000D
:10238400EFF01FDB23A8A4009305801113050400BC
:10239400EFF01FDA23AAA4009305C011130504006B
:1023A400EFF01FD923ACA4006F00C0039305001104
:1023B40013050400EFF0DFD723A6A4009305401112
:1023C40013050400EFF0DFD623A8A4006F008001FA
:1023D400938741BD23AE070023A0070223A207026F
:1023E40023A4070203D70400930770036306F702CC
:1023F4002328040023248900130500008320C1013D
:102404000324810183244101032901018329C1009B
:102414001301010267800000930710002328F400D1
:102424006FF05FFD130101FE232E1100232C8100A8
:10243400232A910023282101232631011389050031
:1024440093090600138406008324850013060010F4
:10245400930500001385C1ABEFF0CFD41306001031
:10246400930500001385C19BEFF0CFD31306001032
:1024740093050000372505001305C510EFF08FD232
:1024840033862903135306019317060193D70701D3
:102494006384070013031300930600006F00C00653
:1024A400930500009307F3FF638AD70693E51502AB
:1024B400939736001387C1ABB388E70013982600BF
:1024C4001385C19B330505012320150123A0B80002
:1024D40013074700B307F700372705001307C71092
:1024E400330707012320F7001397060133078700FA
:1024F40023A0E700B707010063F6C700B707FFFF93
:102504003306F6009386160063FE6600B7070100E3
:10251400E3E8C7F8931506016FF0DFF893E5350299
:102524006FF01FF903A6C19B930580151385040062
:10253400EFF01FBF130500008320C10103248101B4
:1025440083244101032901018329C10013010102EC
:1025540067800000130101FE232E1100232C81004B
:10256400232A910023282101232631012324410118
:1025740013040500138905009304060083298500CC
:1025840083A7490123A007000327860093071000AF
:102594006306F70683A749011307100023A4E70085
:1025A40003A74400930720006300F70683A74901AB
:1025B4001307100023A6E7002324340183A7840013
:1025C4009397070103A6C40033E6C70093054010A0
:1025D40013850900EFF0DFB4930509001305040027
:1025E400EFF01FB603A7440093072000630CF70A1B
:1025F400130A0000130400006F00C01383A74901ED
:1026040023A407006FF0DFF983A7490123A607007D
:102614006FF09FFA83A704009306140033878700A2
:102624000347070013062400B386D70083C60600B9
:10263400939686003367D700930634003386C70029
:1026440003460600131606013367C700B387D70095
:102654001304440003C60700131686013366C7003B
:102664009305001213850900EFF09FAB13091900BD
:1026740083A7C40093D72700E36EF9F8130A1A005E
:1026840083A784006376FA0E93054012138509002C
:10269400EFF01FAA13750540E30805FE13090000B7
:1026A4006FF01FFD130A0000130400006FF05FFDBC
:1026B400130900009307F00763CC27079305001262
:1026C40013850900EFF0DFA603A7040093061400A6
:1026D400330787002300A7001357850083A704004E
:1026E40013062400B387D7002380E700935605011F
:1026F40003A70400930734003307C7002300D7005F
:102704001355850103A70400B307F700130444001D
:102714002380A7003706B0F8B7E5F50593850510C3
:1027240013051000EFF09F9B130919006FF09FF839
:10273400130A1A0083A78400637CFA0293054012EB
:1027440013850900EFF0DF9EB71700009387078019
:102754003375F500E31E05F43706B0F8B7E5F50563
:102764009385051013051000EFF05F976FF01FFDC0
:10277400938741BD03A7470093071000E31AF7FEB0
:10278400938741BD23A20700130500008320C101E4
:102794000324810183244101032901018329C10008
:1027A400032A81001301010267800000835705009A
:1027B400130710016386E702130720016386E7020B
:1027C400130780016386E702130790016386E7001D
:1027D40013050000678000001305100067800000E7
:1027E40013051000678000001305100067800000C7
:1027F4001305100067800000130101FF2326110058
:1028040023248100232291002320210113090500A0
:10281400138405009304060013850500EFF01FF9E7
:10282400630A0502638A0400138604009305040006
:1028340013050900EFF01FD2130500008320C10027
:1028440003248100832441000329010013010101B1
:10285400678000009305040013050900EFF05F8E04
:102864006FF09FFD130101FF23261100930705005C
:10287400032585000326450003A787016366E60454
:102884001306070023A2C702B78701009387076ACC
:10289400B3C7C7023706010033E6C70093054000FB
:1028A400EFF01F883706B0F8B7E5F50593850510F6
:1028B4001305A000EFF09F82130500008320C100E0
:1028C400130101016780000003A74701E36CC7FA05
:1028D400130607006FF01FFB130101FF23261100ED
:1028E400930705000325850003A70702930730001B
:1028F40063F0E7021306200093058012EFF05F8275
:10290400130500008320C10013010101678000004A
:10291400130610006FF05FFE130101FF2326110060
:102924002324810013040500EFF0DFF313050400F2
:10293400EFF09FFA130500008320C10003248100F7
:102944001301010167800000130101FF2326110018
:1029540023248100130405008327050083A747006F
:1029640083A7C700E78007008327040083A74700E5
:1029740083A7070113050400E780070083270400E9
:1029840083A7470083A7470013050400E7800700D7
:10299400130500008320C1000324810013010101F9
:1029A40067800000130101FE232E1100232C8100F7
:1029B400232A910023282101232631011304050031
:1029C4009389050013058001EFE0CFF2930405001D
:1029D40013054001EFE00FF21309050023840400FE
:1029E400A384040023850400A38504002386040033
:1029F400A386040023870400A3870400238804001B
:102A0400A388040023890400A38904001306400159
:102A140093050000EFE01FF923A03401B7C70000BD
:102A24009387073523A2F40023AA240123249400C6
:102A34008326040037970000130787A623A0E60027
:102A44000327040083264700372700001307C77FA6
:102A540023A0E6000327040083264700373700003D
:102A64001307C79123A2E600032704008326470027
:102A7400372700001307471123A6E60003270400A5
:102A840083264700372700001307C71123A8E60051
:102A9400232CF400B73700009387470D232AF40052
:102AA400B70700202326F4028327040013070040FD
:102AB40023ACE700930740002320F402930710009F
:102AC400232EF400930700202326F4068327040012
:102AD4003707300023A6E70013050400EFF0DFE614
:102AE400130500008320C1010324810183244101D3
:102AF400032901018329C100130101026780000039
:102B040003250504137515006780000013070504E9
:102B1400930700212320F5048327070093F7070177
:102B2400E39C07FE67800000130101FF23261100C8
:102B3400232481001304050013050400EFF05FFC57
:102B4400E31C05FE8320C10003248100130101015D
:102B540067800000130101FF2326110013070042C0
:102B64002320E504EFF05FFC8320C1001301010181
:102B7400678000008327450093F70710E39C07FE56
:102B840067800000130101FF232611001307103092
:102B94002322E500EFF01FFE8320C1001301010191
:102BA40067800000032585001375F50F678000001A
:102BB4000325C5001375F50F3335A00067800000A9
:102BC4000325C5001375F50F133515006780000044
:102BD400130101FF232611002324810023229100E5
:102BE4001304050093840500377501F8EFF01FF214
:102BF400377701F8B7170000938707B22320F7004F
:102C0400377501F8EFF01FF8377501F8EFF05FFB47
:102C1400EF2040396300050213041000130504007B
:102C24008320C10003248100832441001301010196
:102C3400678000009357840037170000130707B01C
:102C4400B3E7E700377701F82320F700377501F879
:102C5400EFF05FF3377501F8EFF09FF6EF20803463
:102C640063060500130410006FF05FFB1374F40F88
:102C7400B7170000938707B03364F400B77701F8FF
:102C840023A08700377501F8EFF0DFEF377501F8FF
:102C9400EFF01FF3EF20003163060500130410006A
:102CA4006FF0DFF7B7170000938707B0B3E4F400C1
:102CB400B77701F823A09700377501F8EFF09FEC80
:102CC400377501F8EFF0DFEFEF20C02D1304050096
:102CD40063060500130410006FF05FF4377501F804
:102CE400EFF05FE76FF09FF3130101FE232E110055
:102CF400232C8100232A910023282101232631013A
:102D040093040500377501F8EFF05FE0377901F8B7
:102D140037140000930704B22320F900377501F833
:102D2400EFF05FE6377501F8EFF09FE9EF208027B9
:102D340093D78400930904B0B3E737012320F90043
:102D4400377501F8EFF01FE4377501F8EFF05FE72E
:102D5400EF20402593F4F40FB3E4340123209900C9
:102D6400377501F8EFF01FE2377501F8EFF05FE512
:102D7400EF204023377501F8EFF0DFDD377501F8F8
:102D8400EFF0DFD8930714B22320F900377501F868
:102D9400EFF05FDF377501F8EFF09FE2EF2080205E
:102DA4001304F4BF23208900377501F8EFF09FDD89
:102DB400377501F8EFF0DFDFEF20C01E377501F83B
:102DC400EFF05FDE1374F50F377501F8EFF09FD85D
:102DD400130504008320C1010324810183244101DC
:102DE400032901018329C100130101026780000046
:102DF400130101FF232611002324810093055000B1
:102E0400373400001305B40EEFF09FDC9305C000C7
:102E14001305B40EEFF0DFDB9305F00F1305A400E8
:102E2400EFF01FDB9305F00F1305B400EFF05FDA4A
:102E3400930550001305B40EEFF09FD9930590004D
:102E44001305B40EEFF0DFD88320C1000324810002
:102E54001301010167800000130101FF2326110003
:102E64002324810023229100930405001384050088
:102E7400935585001305C016EFF09FD593F5F40F15
:102E84001305D016EFF0DFD4935584001305E01634
:102E9400EFF01FD49375F40F1305F016EFF05FD322
:102EA4008320C10003248100832441001301010114
:102EB40067800000130101FE232E1100232C8100E2
:102EC400232A910023282101232631019309050097
:102ED40013890500930406001384060093558500A6
:102EE40013054016EFF0DFCE93F5F90F13055016D6
:102EF400EFF01FCE9355890013056016EFF05FCDF8
:102F04009375F90F13057016EFF09FCC93D58400D9
:102F140013058016EFF0DFCB93F5F40F130590162D
:102F2400EFF01FCB935584001305A016EFF05FCA92
:102F34009375F40F1305B016EFF09FC98320C101F8
:102F44000324810183244101032901018329C10050
:102F54001301010267800000130101FF2326110001
:102F64002324810023229100930405001384050087
:102F74009355850013054016EFF09FC593F5F40FA4
:102F840013055016EFF0DFC4935584001305601643
:102F9400EFF01FC49375F40F13057016EFF05FC3C1
:102FA4008320C10003248100832441001301010113
:102FB40067800000130101FF2326110023248100F0
:102FC4002322910093040500138405009355850082
:102FD40013058016EFF0DFBF93F5F40F1305901679
:102FE400EFF01FBF935584001305A016EFF05FBEEA
:102FF4009375F40F1305B016EFF09FBD8320C10045
:10300400032481008324410013010101678000002F
:10301400130101FF232611002324810013840500DA
:103024009307200063F4A7001305300093072000E2
:1030340063F487001304300093050500130540175B
:10304400EFF01FB99305040013055017EFF05FB8B4
:103054008320C10003248100130101016780000063
:10306400130101FF23261100232481002322910050
:1030740093040500138405009355850013054062ED
:10308400EFF01FB593F5F40F13055062EFF05FB442
:103094009355840013056062EFF09FB39375F40FAA
:1030A40013057062EFF0DFB28320C10003248100B6
:1030B400832441001301010167800000130101FE14
:1030C400232E1100232C8100232A9100232821017F
:1030D4002326310113040500938905009304060097
:1030E400138906009305000013050060EFF05FAE3E
:1030F400630404001384090093050400130510609D
:10310400EFF01FAD9305090013850400EFF05FF5A0
:103114008320C10103248101832441010329010186
:103124008329C1001301010267800000130101FE1D
:10313400232E1100232C8100232A9100232821010E
:10314400232631012324410123225101130A0500BE
:10315400938A050093090600138906009304070067
:10316400138407009305000013050060EFF05FA6C9
:103174009305100013051060EFF09FA593D5890007
:1031840093F5350013052060EFF09FA493F5F90F34
:1031940013053060EFF0DFA39355890093F53500F4
:1031A40013054060EFF0DFA29375F90F130550602B
:1031B400EFF01FA293D5840093F5350013056060EA
:1031C400EFF01FA19374F40F93850400130570604E
:1031D400EFF01FA09355840093F53500130580602C
:1031E400EFF01F9F9385040013059060EFF05F9E3E
:1031F40093850A0013050A00EFF09FE68320C101BE
:103204000324810183244101032901018329C1008D
:10321400032A8100832A4100130101026780000010
:10322400130101FF232611002324810013840500C8
:103234009305050013057015EFF09F99630C0500C5
:10324400130510008320C100032481001301010130
:10325400678000009355840093F5F50013058015ED
:10326400EFF01F979375F40F13059015EFF05F9629
:103274006FF05FFD130101FF232611002324810059
:10328400232291009305000013050010EFF05F94D2
:103294006300050213041000130504008320C10019
:1032A400032481008324410013010101678000008D
:1032B40013040500EFF0DFB393051000130540116C
:1032C400EFF01F919305000013058012EFF05F905B
:1032D400930580011305A012EFF09F8F9305000062
:1032E4001305B012EFF0DF8E9305400013050016AE
:1032F400EFF01F8E9305900513051016EFF05F8D08
:103304009305D00013052016EFF09F8C93058007DA
:1033140013053016EFF0DF8B9306B06E1306202BE7
:10332400B7150000938575A21305802AEFF09FB8A6
:103334009305804313050078EFF01FB29305100046
:1033440013050017EFF0DF8893051000130510171D
:10335400EFF01F889305000013050000EFF05FCB2A
:103364009305A0001305C018EFF09F869305A000F5
:103374001305D018EFF0DF859305500013051030C6
:10338400EFF01F859305100013053030EFF05F84D4
:103394009305300013054030EFF09F839305300010
:1033A40013055030EFF0DF82930500001305603001
:1033B400EFF01F829305000613057030EFF05F8174
:1033C4009305A00013059030EFF09F809305100043
:1033D4001305B030EFF0CFFF930500001305C030A4
:1033E400EFF00FFF930520071305D030EFF04FFEE9
:1033F4009305A00013059030EFF08FFD93051000A6
:103404001305B030EFF0CFFC930500001305C03076
:10341400EFF00FFC930520071305D030EFF04FFBBE
:103424009305002013050004EFF09FDF930560006F
:1034340013050016EFF0CFF99305300E130510169F
:10344400EFF00FF99305D00013052016EFF04FF8B5
:103454009305800713053016EFF08FF793054000AE
:103464001305A015EFF0CFF6930540051305B0152D
:10347400EFF00FF69305100013050019EFF04FF568
:103484009305000013051019EFF08FF49305100055
:1034940013053019EFF0CFF393050000130540191D
:1034A400EFF00FF39305000013055019EFF04FF2FE
:1034B4009305000013058019EFF08FF19305000FB9
:1034C40013059019EFF0CFF09305000F1305A01921
:1034D400EFF00FF0930500001305B019EFF04FEF74
:1034E4009305A0001305C019EFF08FEE93050000BB
:1034F4001305D019EFF0CFED930580001305E01903
:10350400EFF00FED930500001305F019EFF04FEC09
:10351400930580001305001AEFF08FEB930500006C
:103524001305101AEFF0CFEA9305C0001305201A13
:10353400EFF00FEA930500001305301AEFF04FE99E
:1035440093050000B7D400001385A41EEFF04FE8E4
:10355400930500061385B41EEFF08FE79305000072
:1035640013052017EFF0CFE69305100013050010A4
:10357400EFF00FE66FF05FD2032545001355050108
:103584001375F50F67800000130101FF2326110056
:103594002324810023229100130405009384050051
:1035A40013050400EFF05FFDE30C05FE23209400F7
:1035B4008320C100032481008324410013010101FD
:1035C40067800000130101FF2326110023248100DA
:1035D400232291009304050013840500834504000D
:1035E400638A05001304140013850400EFF0DFF967
:1035F4006FF0DFFE8320C100032481008324410097
:10360400130101016780000093952500B385A5008F
:1036140023A0C50067800000939575003385A5003D
:1036240093555600939525003305B500B725000042
:103634003305B50093071000B397C700638A0600EB
:1036440003260500B3E7C7002320F50067800000C8
:103654000326050093C7F7FFB3F7C7002320F5003F
:10366400678000009395C500B385A5003705200049
:10367400B385A50023A0C500678000009395C5000D
:10368400B385A5003705200013054500B385A500C3
:1036940003A50500678000009395C500B385A500C8
:1036A4003705200013054500B385A50023A0C500F8
:1036B4006780000093957500B385A50023AAC5040F
:1036C4006780000093957500B385A50003A54505A3
:1036D4003375A60067800000130101FF2326110043
:1036E40093050500370501F8EFF0DFED8320C100F5
:1036F4001301010167800000130101FF232611005B
:103704002324810023229100930405003704004000
:103714001304F4FF33848500131424006346040265
:10372400B3D7840013F7F700B79700009387C7A7B0
:10373400B387E70083C50700370501F8EFF0DFE43E
:103744001304C4FF6FF09FFD8320C1000324810094
:10375400832441001301010167800000130101FF6C
:1037640023261100232481001306000093058013EF
:1037740003A5C1BBEFE0DF9A9305001303A5C1BB0A
:10378400EFE01F9B1304050093771500639E070663
:103794009377240063980708937744006394070A97
:1037A400937704016390070C937704026396070CE4
:1037B40093770404639C070C937704086398070EBB
:1037C4009317F40063C407109317E40063C007124F
:1037D4009317D40063CC07129317C40063C807146B
:1037E4009317A40063C407161306F0FC9305801313
:1037F40003A5C1BBEFE0DF928320C1000324810055
:1038040013010101678000001307100023AAE1BC23
:10381400130610009305001303A5C1BBEFE05F90EE
:103824006FF01FF7938741BD1307100023A2E70031
:10383400130620009305001303A5C1BBEFE05F8EC0
:103844006FF09FF5938741BD1307100023A4E70091
:10385400130640009305001303A5C1BBEFE05F8C82
:103864006FF01FF4130600019305001303A5C1BBF9
:10387400EFE01F8B6FF05FF3130600029305001354
:1038840003A5C1BBEFE0DF896FF09FF2938741BDD1
:103894001307100023AAE70013060004930500137E
:1038A40003A5C1BBEFE0DF876FF01FF1938741BD34
:1038B4001307100023ACE700130600089305001358
:1038C40003A5C1BBEFE0DF856FF09FEF938741BD98
:1038D4001307100023AEE700370601009305001319
:1038E40003A5C1BBEFE0DF836FF01FEE938741BDFB
:1038F4001307100023A0E702370602009305001304
:1039040003A5C1BBEFE0DF816FF09FEC938741BD5E
:103914001307100023A2E7023706040093050013DF
:1039240003A5C1BBEFE0CFFF6FF01FEB938741BD51
:103934001307100023A4E7023706080093050013B9
:1039440003A5C1BBEFE0CFFD6FF09FE93706200070
:103954009305001303A5C1BBEFE08FFC6FF0DFE814
:10396400130101FF23261100130600019305000033
:10397400370513F8EFF01FD563160504130600018D
:1039840093051000370513F8EFF0DFD3631E050627
:103994001306000193052000370513F8EFF09FD2BA
:1039A4006318050A1306000193053000370513F860
:1039B400EFF05FD16312050E8320C10013010101F2
:1039C400678000001306000193050000370513F813
:1039D400EFF05FCE138741BC83270700938717005E
:1039E4002320F70013079000E35AF7F823A201BC41
:1039F40083A701BC93C7170023A0F1BC370711F8B4
:103A04002322F7006FF09FF71306000193051000BF
:103A1400370513F8EFF01FCA138741BC832747000B
:103A2400938717002322F70013079000E352F7F659
:103A3400938741BC23A2070083A701BC93C7270037
:103A440023A0F1BC370711F82322F7006FF05FF4CD
:103A54001306000193052000370513F8EFF09FC506
:103A6400138741BC83278700938717002324F7001B
:103A740013079000E358F7F2938741BC23A407008F
:103A840083A701BC93C7470023A0F1BC370711F8F3
:103A94002322F7006FF01FF1130600019305300095
:103AA400370513F8EFF01FC1138741BC8327C70004
:103AB400938717002326F70013079000E35EF7EEC1
:103AC400938741BC23A6070083A701BC93C7870043
:103AD40023A0F1BC370711F82322F7006FF0DFEDC4
:103AE400130101FF23261100B7950000938505A952
:103AF400370501F8EFF01FAD6F000000130101FF5F
:103B040023261100232481001304050037950000A7
:103B1400130505AAEFF05FBC9305800013050400AC
:103B2400EFF09FBD371505001305455DEFF0DFBAD3
:103B3400B7950000938505A9370501F8EFF09FA814
:103B44006F000000130101FF2326110023248100CC
:103B54001304050037950000130505AAEFF0DFB73D
:103B64009305800013050400EFF01FB93715050015
:103B74001305455DEFF05FB68320C1000324810087
:103B84001301010167800000130101FF23261100C6
:103B9400232481006F008001EFF05FBC1306040052
:103BA400930500003705C0F8EFF01FAF9305000040
:103BB4003705C0F8EFF09FAC13040500630C050251
:103BC40093071001E30AF4FC930760016300F40215
:103BD40093070001E304F4FC37950000130505ABDB
:103BE400EFF09FAF13050400EFF05FF1EFF05FD744
:103BF4006FF0DFFA8320C100032481001301010167
:103C040067800000130101FF232611002324810093
:103C140023229100232021017324203463500404BF
:103C24009374F4009307B0006390F402EFF0DFF5AF
:103C34008320C1000324810083244100032901005F
:103C4400130101016780000037950000130545AC9E
:103C5400EFF09FA813850400EFF05FEA1359F40115
:103C640037950000130585ADEFF01FA71305040079
:103C7400EFF05FED13050900EFF05FE8130101FFBA
:103C84002326110023A001BC130700006F0080014C
:103C940093162700938741BCB387D70023A007005E
:103CA4001307170093073000E3D4E7FE1306000060
:103CB400930500003705C0F8EFF0DF9A9306100073
:103CC40013061001930500003705C0F8EFF0DF94E8
:103CD40013061000930510013705C0F8EFF0DF92CA
:103CE4009306100013066001930500003705C0F821
:103CF400EFF09F9213062000930560013705C0F88A
:103D0400EFF09F90B78700009387874873905730F0
:103D1400B71700009387078073A04730B7270000C8
:103D240093878780739007308320C10013010101BA
:103D340067800000130101FF232611002324810062
:103D44000325850023AEA1BA130600009305401392
:103D5400EFE00FBD1306F0FC9305401303A5C1BBB0
:103D6400EFE00FBC1306F0FC9305801303A5C1BB61
:103D7400EFE00FBB8320C100032481001301010184
:103D84006780000003254500135505011375F50FE1
:103D940067800000032545001355850167800000F6
:103DA400130101FF23261100232481002322910003
:103DB400130405009384050013050400EFF09FFC31
:103DC400E30C05FE232094008320C100032481001A
:103DD400832441001301010167800000130101FFE6
:103DE400232611002324810023229100930405003B
:103DF4001384050083450400638A0500130414003A
:103E040013850400EFF0DFF96FF0DFFE8320C100BB
:103E14000324810083244100130101016780000011
:103E2400130101FF2326110023248100130405003C
:103E340013050400EFF01FF6E30C05FE0325040050
:103E44001375F50F8320C1000324810013010101C0
:103E540067800000B7470F0093870724B3D5F502A6
:103E6400B7C70000938787FF3306F6008327060051
:103E74003385A5023305F50083270600B307F54013
:103E8400E3DC07FE67800000130101FF2326110015
:103E940093050500370501F8EFF09FF08320C1007A
:103EA4001301010167800000130101FF23261100A3
:103EB400232481001304050003450400630805005E
:103EC40013041400EFF05FFC6FF01FFF8320C100A8
:103ED400032481001301010167800000130101FF25
:103EE400232611002324810023229100930405003A
:103EF4001304C0016F004002B3D7840013F7F70026
:103F0400B79700009387C7A7B387E70003C50700E7
:103F1400EFF09FF71304C4FFE35004FE8320C100B5
:103F24000324810083244100130101016780000000
:103F3400130101FF23261100232481002322910071
:103F4400930405001304C0016F004002B3D784003A
:103F540013F7F700B7970000938747AEB387E700DE
:103F640003C50700EFF05FF21304C4FFE35004FE3F
:103F74008320C10003248100832441001301010133
:103F840067800000130101FF232611001375F50F4C
:103F9400EFF09FEF8320C10013010101678000004F
:103FA400130101FF23261100EFF01FF08320C1004D
:103FB4001301010167800000130101FD2326110292
:103FC4002324810223229102930405006346050001
:103FD400130401006F00C0021305D002EFF09FFA32
:103FE400B30490406FF0DFFE1307A000B3E7E402D0
:103FF400938707032300F400B3C4E40213041400FA
:10400400E39404FE93070100E300F4FE6F00000153
:104014001304F4FF03450400EFF0DFF693070100F7
:10402400E318F4FE8320C1020324810283244102A5
:104034001301010367800000130101FF232611000F
:10404400130700009307700063C0E702931627006C
:10405400930700FFB397D700B377F5006386070093
:10406400130717006FF01FFEEFF09FEC8320C100D1
:104074001301010167800000130101FF23261100D1
:10408400130700009307700063C0E702931627002C
:10409400930700FFB397D700B377F5006386070053
:1040A400130717006FF01FFEEFF05FE38320C100DA
:1040B4001301010167800000939575003385A50005
:1040C4009307F0FF232AF5042328C5046780000022
:1040D40093957500B385A50023AAC50467800000E5
:1040E40093957500B385A50093968600B3E6C60044
:1040F40023A2D50467800000032505041375150069
:104104006780000013070504930700212320F504AA
:104114008327070093F70701E39C07FE67800000ED
:10412400130101FF23261100232481001304050039
:1041340013050400EFF05FFCE31C05FE8320C100BF
:10414400032481001301010167800000130101FFB2
:1041540023261100130700422320E504EFF05FFC3F
:104164008320C100130101016780000083274500FB
:1041740093F70710E39C07FE67800000130101FF1B
:1041840023261100130710302322E500EFF01FFE51
:104194008320C1001301010167800000032585000D
:1041A4001375F50F678000000325C5001375F50F1F
:1041B4003335A000678000000325C5001375F50F93
:1041C4001335150067800000130101FC232E110034
:1041D400232C8100232A9100930405002322B10299
:1041E4002324C1022326D1022328E102232AF10237
:1041F400232C0103232E1103930741022326F100EC
:10420400130400006F00C0018327C1001387470017
:104214002326E10003A50700EFF0DFD61304140002
:10422400B387840003C507006302050C930750029B
:104234006306F506EFF01FD56FF05FFE8327C1001C
:10424400138747002326E10003A50700EFF05FD59D
:104254006FF0DFFC8327C100138747002326E100AA
:1042640003A50700EFF05FD56FF05FFB8327C10064
:10427400138747002326E10003A50700EFF0DFDFE3
:104284006FF0DFF98327C100138747002326E1007D
:1042940003A50700EFF05FDA6FF05FF81304140072
:1042A400B387840083C70700E38A07F61307300641
:1042B400E38CE7F413073007E382E7F813074006BB
:1042C400E38AE7F813078005E382E7FA1307800718
:1042D400E38AE7FA13076006E392E7FC37950000E8
:1042E400130585AFEFF0DFCB6FF05FF38320C101DF
:1042F4000324810183244101130101046780000028
:10430400130101FF2326110093050500370501F869
:10431400EFF0DFAC8320C1001301010167800000CE
:10432400130101FF2326110023248100232291007D
:104334001304050093840500377501F8EFF09FDC42
:10434400377701F8B7170000938747B52320F700A4
:10435400377501F8EFF09FE2377501F8EFF0DFE50C
:10436400EF00504463000502130410001305040019
:104374008320C1000324810083244100130101012F
:1043840067800000B7170000938707B03364F40018
:10439400B77701F823A08700377501F8EFF01FDE27
:1043A400377501F8EFF05FE1EF00D03F63060500D9
:1043B400130410006FF09FFBB7170000938707B03A
:1043C400B3E4F400B77701F823A09700377501F838
:1043D400EFF0DFDA377501F8EFF01FDEEF00903C05
:1043E4001304050063060500130410006FF01FF8A2
:1043F400377501F8EFF09FD56FF05FF7130101FFF8
:10440400232611002324810023229100232021014B
:1044140013090500377501F8EFF0DFCEB77401F822
:1044240037140000930744B523A0F400377501F84E
:10443400EFF0DFD4377501F8EFF01FD8EF009036B6
:10444400930704B03369F90023A02401377501F8F8
:10445400EFF0DFD2377501F8EFF01FD6EF0090349C
:10446400377501F8EFF09FCE377501F8EFF09FC96B
:10447400930754B523A0F400377501F8EFF01FD06B
:10448400377501F8EFF05FD3EF00D0311304F4BFB8
:1044940023A08400377501F8EFF05FCE377501F87B
:1044A400EFF09FD0EF001030377501F8EFF01FCF19
:1044B4001374F50F377501F8EFF05FC913050400A5
:1044C4008320C100032481008324410003290100C7
:1044D4001301010167800000130101FF232611006D
:1044E40023248100232291002320210113090500A4
:1044F40093840500130400006F0000059305040075
:1045040037950000130585B6EFF01FCC930509001D
:10451400379500001305C5B8EFF01FCB9385040051
:10452400379500001305C5B9EFF01FCA3706B0F878
:10453400B7E5F5059385051037150300130505D474
:10454400EFF05F91130414009307300063C28704F3
:10455400B70711F823A8870293172400138701C310
:10456400B307F70083A70700E38207FC93850400E1
:1045740013050900EFE0DFCAE30205F89305040020
:1045840037950000130545B4EFF01FC46FF01FFA10
:104594008320C100032481008324410003290100F6
:1045A4001301010167800000130101FE232E110095
:1045B400232C8100232A9100232821012326310161
:1045C400232441012322510193040500938905000A
:1045D40013090600130400006F00C00B93F5F40FD9
:1045E4001305D019EFE0CFDE93DA890093850A0032
:1045F4001305E019EFE0CFDD13FAF90F93050A0074
:104604001305F019EFE0CFDC93850A001305001AB7
:10461400EFE00FDC93050A001305101AEFE04FDBFF
:10462400935589001305201AEFE08FDA9375F90F7B
:104634001305301AEFE0CFD9930504003795000035
:104644001305C5BAEFF05FB89385040037950000F1
:10465400130545BCEFF05FB793850900379500005B
:10466400130585BDEFF05FB693050900379500008B
:104674001305C5BEEFF05FB53706B0F8B7E5F5052D
:104684009385051037150300130505D4EFF08FFC4F
:10469400130414009307300063CA8702B70711F8A4
:1046A40023A8870293172400138701C3B307F700D5
:1046B40083A70700E38207FC93D584001305C01980
:1046C400EFE00FD1E31A05FA6FF05FF18320C10127
:1046D4000324810183244101032901018329C100A9
:1046E400032A8100832A410013010102678000002C
:1046F400130101FE232E1100232C8100232A910093
:10470400232821012326310123244101EF30505273
:10471400B70711F883A4470093F484FF130700003C
:10472400B7473F009387F77F63CEE70093162700D0
:10473400B7070005B387D70023A0070013071700A6
:104744006FF01FFE13840117B70700052320F40040
:10475400B7A71F05938707402322F400B7573F05E7
:10476400938707802324F400B7F75E05938707C077
:104774002326F400B705000537990000130509C086
:10478400EFF09FA483254400130509C0EFF0DFA3D5
:1047940083258400130509C0EFF01FA38325C400FB
:1047A400130509C0EFF05FA2B7050001130509C0A6
:1047B400EFF09FA137950000130505C1EFF0DFA0CE
:1047C400EF301047B70711F823A8070223A8070200
:1047D4009305000037950000130585C2EFF0DF9EB6
:1047E400EF20C028630E05009305000037950000F4
:1047F400130585C3EFF05F9D130400006F00C00430
:104804009305000037950000130585C6EFF0DF9B84
:104814006FF09FFE13172400938701C3B387E7004B
:1048240023A00700B70711F823A887023706B0F8BA
:10483400B7E5F5059385051037150300130505D471
:10484400EFF04FE11304140093073000E3D487FC26
:10485400370411F8232294009384011713060000EF
:104864009305000003A50400EF2010301306100088
:104874009305100003A54400EF20102F1306100029
:104884009305000003A58400EF20102E13060000FA
:104894009305100003A5C400EF20102D93067000AB
:1048A4001306500093050000370513F8EFF05F83FB
:1048B400930670001306500093051000370513F893
:1048C400EFF01F829306700013065000930520003A
:1048D400370513F8EFF0DF809306700013065000DD
:1048E40093053000370513F8EFF08FFF930670003F
:1048F4001306600093055000370513F8EFF04FFEE0
:10490400930670001306700093054000370513F8F2
:10491400EFF00FFD1306000193050000370513F8AF
:10492400EFF08FF91306F0FF93051000370513F825
:10493400EFF00FFA1306000193051000370513F882
:10494400EFF08FF71306F0FF93052000370513F8F7
:10495400EFF00FF81306000193052000370513F854
:10496400EFF08FF51306F0FF93053000370513F8C9
:10497400EFF00FF61306000193053000370513F826
:10498400EFF08FF3232C0402B7F707009387F78F18
:104994002322F4042324F4042326F4042328F40413
:1049A4003706B0F837E9F505930509103715030004
:1049B400130505D4EFF00FCA13050000EF20506B68
:1049C40013051000EF20D06A13052000EF20506A71
:1049D40013053000EF20D06923AC0180232C04029E
:1049E4003706B0F893050910B7290600138509A8FE
:1049F400EFF04FC69305000003A50400EF20902BB1
:104A04009305100003A54400EF20D02A930520004D
:104A140003A58400EF20102A9305300003A5C400E9
:104A2400EF205029130AF000232C44033706B0F872
:104A340093050910138509A8EFF0CFC1B70600014B
:104A4400130600009305000003A50400EF30900551
:104A54003706B0F893050910138509A8EFF08FBF46
:104A6400232004029307C0212322F40223240402F6
:104A7400930700782326F40293071000232AF402F4
:104A8400232E440383A7818213D5F741B715000071
:104A94009385F5FF3375B5003305F5001355C5400F
:104AA4009397070193D70701B3F5B7001375F50F73
:104AB400EFF09FA203D6C18183D5018203D5418241
:104AC400EFF09FAE8320C1010324810183244101BF
:104AD400032901018329C100032A81001301010272
:104AE4006780000067800000130101FF2326110086
:104AF4002324810023229100930710036304F50407
:104B0400930720036304F508930730036308F50C47
:104B140093074003630CF510930750036300F516E5
:104B2400930760036306F51A930770036306F51E83
:104B34008320C10003248100832441001301010167
:104B44006780000023A00188EF205056370411F835
:104B5400232E04023706B0F8B7E5F5059385051052
:104B640037150300130505D4EFF0CFAEB7060001E7
:104B7400130600009305000003A50117EF308072AF
:104B840093075000232EF4026FF09FFA13071000CE
:104B940023A0E188EF209051370411F8232E04025A
:104BA4003706B0F8B7E5F50593850510371503000A
:104BB400130505D4EFF00FAAB70600011306000091
:104BC400930500009387011703A54700EF30806D1C
:104BD40093075000232EF4026FF09FF51307200073
:104BE40023A0E188EF20904C370411F8232E04020F
:104BF4003706B0F8B7E5F5059385051037150300BA
:104C0400130505D4EFF00FA5B70600011306000045
:104C1400930500009387011703A58700EF30806890
:104C240093075000232EF4026FF09FF01307300017
:104C340023A0E188EF209047370411F8232E0402C3
:104C44003706B0F8B7E5F505938505103715030069
:104C5400130505D4EFF00FA0B706000113060000FA
:104C6400930500009387011703A5C700EF30806305
:104C740093075000232EF4026FF09FEB13074000BC
:104C840023A0E188EF209042370411F8232E040278
:104C94003706B0F8B7E5F505938505103715030019
:104CA400130505D4EFF00F9B938701173707000115
:104CB40083A6C70003A6870083A5470003A50700B2
:104CC400EF30402393075000232EF4026FF05FE689
:104CD4009304500023A09188EF20503D370411F82D
:104CE400232E04023706B0F8B7E5F50593850510C1
:104CF40037150300130505D4EFF0CF9593870117FB
:104D04003706000183A5470003A50700EF20507E66
:104D1400232E94026FF0DFE11307600023A0E188E3
:104D2400EF20D038370411F8232E04023706B0F8E8
:104D3400B7E5F5059385051037150300130505D46C
:104D4400EFF04F91938701173706000183A5C70041
:104D540003A58700EF20D07993075000232EF40297
:104D64006FF01FDD130101FE232E11009387818351
:104D740003A707002324E10003D747002316E1001B
:104D840083C767002307F10083A70188938717006F
:104D940023A0F188130760006374F70023A001883F
:104DA40083A7018813070101B307F70003C587FF31
:104DB400EFF09FD38320C10113010102678000003B
:104DC400130101FF2326110023248100B70711F8E2
:104DD40003A447011374340083A74181638C8702C1
:104DE400370711F88327470093F7D7FF2322F700EB
:104DF400930730006308F400B70711F803A44701D0
:104E040013743400930720006300F4029307100026
:104E14006304F40223AA81808320C1000324810057
:104E2400130101016780000037950000130585C94F
:104E3400EFF08FB96FF01FFE379500001305C5CA58
:104E4400EFF08FB8EFF01FF26FF0DFFC130101FFFA
:104E5400232611002324810037950000130505CC77
:104E6400EFF08FB6B7950000938545CF37950000D6
:104E7400130585CFEFF04FB5EFE05FE0B70711F80A
:104E840083A5070437950000130585D0EFF0CFB351
:104E9400EFF01F866F0000023706B0F8B7E5F5059E
:104EA40093850510378501001305056AEFE09FFA25
:104EB400EFF01FF1370501F8EFE0DFEDE30E05FC3D
:104EC400370501F8EFE0DFF513040500B79500009E
:104ED4009385C5D2370501F8EFE05FF09305040030
:104EE400370501F8EFE0DFEBB71505009385855A28
:104EF400370501F8EFE09FEE13050400EFF0DFBE85
:104F04006FF09FF903254500135505011375F50F3F
:104F140067800000130101FF232611002324810070
:104F24002322910013040500938405001305040053
:104F3400EFF05FFDE30C05FE232094008320C10005
:104F440003248100832441001301010167800000D0
:104F5400130101FF23261100232481002322910041
:104F6400930405001384050083450400638A050047
:104F74001304140013850400EFF0DFF96FF0DFFE73
:104F84008320C10003248100832441001301010113
:104F9400678000002320B50067800000032505001A
:104FA40067800000630605001305000067800000A9
:104FB400130101FF23261100B79500009385C5D383
:104FC400370501F8EFF0DFF8130510008320C10066
:104FD4001301010167800000130101FF2326110062
:104FE40023248100130405009375F50F370501F898
:104FF400EFF05FF2130504008320C1000324810055
:105004001301010167800000130101FF2326110031
:1050140023248100130405000345040063080500EC
:10502400EFF09FFB130414006FF01FFF1305A000A3
:10503400EFF09FFA130500008320C10003248100D0
:105044001301010167800000130101FF23261100F1
:105054002324810023229100930405003704004097
:105064001304F4FF338485001314240063460402FC
:10507400B3D7840013F7F700B79700009387C7A747
:10508400B387E70083C50700370501F8EFF09FE811
:105094001304C4FF6FF09FFD8320C100032481002B
:1050A40083244100130101016780000003254500AA
:1050B400135505011375F50F67800000130101FFF7
:1050C40023261100232481002322910013040500C8
:1050D4009384050013050400EFF05FFDE30C05FE67
:1050E400232094008320C1000324810083244100F1
:1050F4001301010167800000B7470F00938707245D
:10510400B3D5F502B7C70000938787FF3306F600CF
:10511400832706003385A5023305F500832706009F
:10512400B307F540E3DC07FE67800000130101FFCD
:105134002326110093050500370501F8EFF01FF849
:105144008320C1001301010167800000130101FFE6
:1051540023261100232481001304050003450400C1
:105164006308050013041400EFF05FFC6FF01FFFE9
:105174008320C10003248100130101016780000022
:10518400130101FF2326110023248100232291000F
:10519400930405001304C0016F004002B3D78400D8
:1051A40013F7F700B79700009387C7A7B387E70003
:1051B40003C50700EFF09FF71304C4FFE35004FE98
:1051C4008320C100032481008324410013010101D1
:1051D40067800000130101FF2326110023248100AE
:1051E40023229100930405001304C0016F004002C0
:1051F400B3D7840013F7F700B7970000938747AE3F
:10520400B387E70003C50700EFF05FF21304C4FFA0
:10521400E35004FE8320C100032481008324410061
:105224001301010167800000130101FF232611000F
:105234001375F50FEFF09FEF8320C10013010101F7
:1052440067800000130101FF23261100EFF01FF017
:105254008320C1001301010167800000130101FDD7
:1052640023261102232481022322910293040500A0
:1052740063460500130401006F00C0021305D00249
:10528400EFF09FFAB30490406FF0DFFE1307A00025
:10529400B3E7E402938707032300F400B3C4E402F2
:1052A40013041400E39404FE93070100E300F4FEE6
:1052B4006F0000011304F4FF03450400EFF0DFF670
:1052C40093070100E318F4FE8320C1020324810242
:1052D400832441021301010367800000130101FFCD
:1052E40023261100130700009307700063C0E70230
:1052F40093162700930700FFB397D700B377F50001
:1053040063860700130717006FF01FFEEFF09FEC92
:105314008320C1001301010167800000130101FF14
:1053240023261100130700009307700063C0E702EF
:1053340093162700930700FFB397D700B377F500C0
:1053440063860700130717006FF01FFEEFF05FE39B
:105354008320C1001301010167800000130101FCD7
:10536400232E1100232C8100232A9100930405008D
:105374002322B1022324C1022326D1022328E102DD
:10538400232AF102232C0103232E11039307410244
:105394002326F100130400006F00C0018327C1001D
:1053A400138747002326E10003A50700EFF0DFE79A
:1053B40013041400B387840003C507006302050CBB
:1053C400930750026306F506EFF01FE66FF05FFEE9
:1053D4008327C100138747002326E10003A50700A4
:1053E400EFF05FE66FF0DFFC8327C100138747000F
:1053F4002326E10003A50700EFF05FE66FF05FFBF3
:105404008327C100138747002326E10003A5070073
:10541400EFF0DFF06FF0DFF98327C1001387470057
:105424002326E10003A50700EFF05FEB6FF05FF8C0
:1054340013041400B387840083C70700E38A07F6C4
:1054440013073006E38CE7F413073007E382E7F829
:1054540013074006E38AE7F813078005E382E7FAB7
:1054640013078007E38AE7FA13076006E392E7FC71
:1054740037950000130585AFEFF0DFDC6FF05FF3C5
:105484008320C10103248101832441011301010408
:1054940067800000130101FF232611000328050083
:1054A400032848002390C50023A2D50023A4E500C7
:1054B4008327080013060000E78007008320C1004B
:1054C4001301010167800000130101FF232611006D
:1054D40023248100232291001304050093840500F2
:1054E4000327C505131707019306700013069000E0
:1054F400EFF05FFA83A7C400232EF40283A704010C
:105504002320F40403A744012322E40483A6840192
:105514002324D40493D78700B70640009386F6FF6C
:10552400B3F7D700938717009396970093D6660135
:10553400232ED40693973701232CF4069357B701EF
:1055440093F77700B7960000938606D593972700C4
:10555400B387F60083A70700135787011377370033
:10556400131727003387E60003270704B387E702EE
:105574002324F4068320C1000324810083244100F2
:105584001301010167800000130101FE232E1100A5
:10559400232C8100232A9100232821012326310171
:1055A4002324410123225101130A05001384050019
:1055B400930A0000930400009307100063CE57176A
:1055C40093850A0037950000130505DAEFF01FD91B
:1055D40093050000370912F813058900EFF09F9B2B
:1055E400130700009306000013060000930504004F
:1055F40013050A00EFF01FEA3706B0F8B7E5F50522
:10560400938505101305803EEFF01FAF930510003E
:1056140013058900EFF01F981307A01A9306500191
:10562400130680009305040013050A00EFF09FE6BB
:105634009305200013058900EFF0DF9513070000A0
:1056440093065001130670039305040013050A0022
:10565400EFF05FE4130900006390040A3706B0F822
:10566400B7E9F5059385091037C50000130505351D
:10567400EFF09FA893054000B70412F81385840047
:10568400EFF05F91130700009306500113067003B7
:105694009305040013050A00EFF0DFDF93055000C3
:1056A40013858400EFF01F8F370710409306100016
:1056B400130690029305040013050A00EFF09FDD22
:1056C4008325C400379500001305C5DAEFF01FC920
:1056D4008324C40093D4F4013706B0F893850910E9
:1056E40037450F0013050524EFF01FA11309190016
:1056F40093079000E3D227F7639004049307100004
:10570400639CFA00379500001305C5DBEFF01FC555
:10571400130510006F00400F3706B0F8B7E5F50524
:105724009385051037450F0013050524EFF0DF9C22
:10573400938A1A006FF05FE8130700009306700065
:10574400130620009305040013050A00EFF09FD40C
:105754008327C4002326FA04832704012328FA0498
:1057640083274401232AFA0483278401232CFA047F
:10577400130700009306500113063000930504003C
:1057840013050A00EFF01FD18357E400232EFA0417
:105794009305040013050A00EFF01FD30327CA057D
:1057A400131707019306D001130670009305040034
:1057B40013050A00EFF01FCE0327CA0513170701CC
:1057C40093065001130670039305040013050A00A1
:1057D400EFF05FCC1307200093065001130660001E
:1057E4009305040013050A00EFF0DFCA1307002035
:1057F40093065001130600019305040013050A00E3
:10580400EFF05FC9130500008320C1010324810167
:1058140083244101032901018329C100032A810052
:10582400832A41001301010267800000130101FE75
:10583400232E1100232C8100232A910023282101E7
:1058440023263101930405001389050093090600FA
:105854001384060013070600930650011306000282
:10586400EFF05FC3370780001307F7FF3307E40047
:1058740013179700330737019306500113061002DC
:105884009305090013850400EFF0DFC0130700003F
:105894009306D001130660029305090013850400E2
:1058A400EFF05FBF8320C101032481018324410100
:1058B400032901018329C10013010102678000004B
:1058C400130101FE232E1100232C8100232A9100B1
:1058D40023282101232631012324410123225101BC
:1058E4002320610113090500138B0500930A0600A8
:1058F400938906008327050003AA47001305C00106
:10590400EFB04FFF9304050013050001EFB08FFEC5
:10591400130405001306C001930500001385040059
:10592400EFC04F881306000193050000130504001F
:10593400EFC04F878327C9062326F40023243401AC
:10594400930710006388F906930790012390F400ED
:1059540023A464019307500123A2F40023205401DB
:10596400930720002322F40083270A00130604006F
:105974009385040013050900E780070013850400DC
:10598400EFB04FF813050400EFB0CFF78320C10147
:105994000324810183244101032901018329C100D6
:1059A400032A8100832A4100032B01001301010211
:1059B40067800000930780012390F4006FF05FF983
:1059C400130101FE232E1100232C8100232A9100B0
:1059D40023282101232631012324410123225101BB
:1059E40013090500938A0500130A0600938906002B
:1059F4001305C001EFB00FF0930405001305000177
:105A0400EFB04FEF130405001306C0019305000027
:105A140013850400EFB01FF913060001930500007D
:105A240013050400EFB01FF88327C9062326F400EA
:105A34002324340193071000638AF9069307200195
:105A44002390F40023A454019307500123A2F400EB
:105A540023204401930710002322F4008327090024
:105A640083A7470083A70700130604009385040057
:105A740013050900E780070013850400EFB08FE8E1
:105A840013050400EFB00FE88320C1010324810152
:105A940083244101032901018329C100032A8100D0
:105AA400832A41001301010267800000930710015B
:105AB4002390F4006FF01FF9130101FC232E11024F
:105AC400232C8102232A9102232821032326310334
:105AD400232441032322510323206103232E710134
:105AE400232C8101232A91012328A1012326B1011A
:105AF40093090500138A0500130D0600938C060014
:105B040013090700138C0700930B0800138B08007C
:105B140083240104832A4104832D81049307001004
:105B240063FAB70D13040010131494001306040051
:105B340093050A0013850900EFB05FDE6310050CBE
:105B4400939D3D013305A941B335A900330C9C4114
:105B5400B305BC401306400693060000EF20901BDB
:105B6400130605009386050013850D0093050000B8
:105B7400EF20501A1309050033857441B3B5A4000E
:105B8400B38A6A41B385BA401306400693060000FF
:105B9400EF205018130605009386050013850D00A9
:105BA40093050000EF2010178327C10493F7F73FF4
:105BB4006382070A130500008320C10303248103C1
:105BC40083244103032901038329C102032A810297
:105BD400832A4102032B0102832BC101032C81017F
:105BE400832C4101032D0101832DC1001301010404
:105BF4006780000013840D006FF01FF30326010576
:105C04008325C10437950000130585DDEFF00FF5FA
:105C1400930500009357240063FAF502B387B90093
:105C240003C60700B307BA0083C607006316D6008D
:105C3400938515006FF01FFE37950000130505DFEF
:105C4400EFF0CFF1130510006FF01FF713050000FC
:105C54006FF09FF61307050093060900032601055C
:105C64008325C10437950000130585E1EFF00FEF9C
:105C7400130500006FF05FF4130101FF23261100E8
:105C84002324810023229100232021019304050071
:105C94001389050013040000637C2401EFB01FE0A6
:105CA400B38784002380A700130414006FF0DFFE81
:105CB40003C50400EFB05FDD8320C100032481002D
:105CC40083244100032901001301010167800000BE
:105CD40003254500135505011375F50F6780000072
:105CE400130101FF232611002324810023229100A4
:105CF400130405009384050013050400EFF05FFD11
:105D0400E30C05FE232094008320C10003248100BA
:105D1400832441001301010167800000130101FF86
:105D24002326110093050500370501F8EFF05FFB0A
:105D34008320C1001301010167800000130101FFEA
:105D440023261100232481001304050003450400C5
:105D54006308050013041400EFF05FFC6FF01FFFED
:105D64008320C10003248100130101016780000026
:105D7400130101FF23261100232481002322910013
:105D8400930405001304C0016F004002B3D78400DC
:105D940013F7F700B79700009387C7A7B387E70007
:105DA40003C50700EFF09FF71304C4FFE35004FE9C
:105DB4008320C100032481008324410013010101D5
:105DC40067800000130101FF2326110023248100B2
:105DD40023229100930405001304C0016F004002C4
:105DE400B3D7840013F7F700B7970000938747AE43
:105DF400B387E70003C50700EFF05FF21304C4FFA5
:105E0400E35004FE8320C100032481008324410065
:105E14001301010167800000130101FF2326110013
:105E24001375F50FEFF09FEF8320C10013010101FB
:105E340067800000130101FF23261100EFF01FF01B
:105E44008320C1001301010167800000130101FDDB
:105E540023261102232481022322910293040500A4
:105E640063460500130401006F00C0021305D0024D
:105E7400EFF09FFAB30490406FF0DFFE1307A00029
:105E8400B3E7E402938707032300F400B3C4E402F6
:105E940013041400E39404FE93070100E300F4FEEA
:105EA4006F0000011304F4FF03450400EFF0DFF674
:105EB40093070100E318F4FE8320C1020324810246
:105EC400832441021301010367800000130101FFD1
:105ED40023261100130700009307700063C0E70234
:105EE40093162700930700FFB397D700B377F50005
:105EF40063860700130717006FF01FFEEFF09FEC97
:105F04008320C1001301010167800000130101FF18
:105F140023261100130700009307700063C0E702F3
:105F240093162700930700FFB397D700B377F500C4
:105F340063860700130717006FF01FFEEFF05FE39F
:105F44008320C100130101016780000003250504BB
:105F540013751500678000001307050493070021DB
:105F64002320F5048327070093F70701E39C07FE2A
:105F740067800000130101FF232611002324810000
:105F84001304050013050400EFF05FFCE31C05FE99
:105F94008320C100032481001301010167800000F4
:105FA400130101FF23261100130700422320E504F7
:105FB400EFF05FFC8320C100130101016780000042
:105FC4008327450093F70710E39C07FE67800000D2
:105FD400130101FF23261100130710302322E500CB
:105FE400EFF01FFE8320C100130101016780000050
:105FF400032585001375F50F678000000325C50090
:106004001375F50F3335A000678000000325C50024
:106014001375F50F1335150067800000130101FC9B
:10602400232E1100232C8100232A910093040500C0
:106034002322B1022324C1022326D1022328E10210
:10604400232AF102232C0103232E11039307410277
:106054002326F100130400006F00C0018327C10050
:10606400138747002326E10003A50700EFF0DFDADA
:1060740013041400B387840003C507006302050CEE
:10608400930750026306F506EFF01FD96FF05FFE29
:106094008327C100138747002326E10003A50700D7
:1060A400EFF05FD96FF0DFFC8327C100138747004F
:1060B4002326E10003A50700EFF05FD96FF05FFB33
:1060C4008327C100138747002326E10003A50700A7
:1060D400EFF0DFE36FF0DFF98327C1001387470098
:1060E4002326E10003A50700EFF05FDE6FF05FF801
:1060F40013041400B387840083C70700E38A07F6F8
:1061040013073006E38CE7F413073007E382E7F85C
:1061140013074006E38AE7F813078005E382E7FAEA
:1061240013078007E38AE7FA13076006E392E7FCA4
:1061340037950000130585AFEFF0DFCF6FF05FF305
:106144008320C1010324810183244101130101043B
:1061540067800000130101FF23261100232481001E
:10616400232291001304050093840500377501F878
:10617400EFF09FDE377701F8B7170000938747B336
:106184002320F700377501F8EFF09FE4377501F825
:10619400EFF0DFE7EFE01FE16300050213041000F6
:1061A400130504008320C1000324810083244100DB
:1061B4001301010167800000935784003717000022
:1061C400130707B0B3E7E700377701F82320F70098
:1061D400377501F8EFF0DFDF377501F8EFF01FE3F3
:1061E400EFE05FDC63060500130410006FF05FFB53
:1061F4001374F40FB7170000938707B03364F400E7
:10620400B77701F823A08700377501F8EFF05FDC5A
:10621400377501F8EFF09FDFEFE0DFD86306050084
:10622400130410006FF0DFF7B7170000938707B06F
:10623400B3E4F400B77701F823A09700377501F8A9
:10624400EFF01FD9377501F8EFF05FDCEFE09FD571
:106254001304050063060500130410006FF05FF4D7
:10626400377501F8EFF0DFD36FF09FF3130101FEF0
:10627400232E1100232C8100232A9100232821019D
:106284002326310193040500377501F8EFF0DFCCC4
:10629400377901F837140000930744B32320F90039
:1062A400377501F8EFF0DFD2377501F8EFF01FD63C
:1062B400EFE05FCF93D78400930904B0B3E73701CD
:1062C4002320F900377501F8EFF09FD0377501F8F6
:1062D400EFF0DFD3EFE01FCD93F4F40FB3E4340118
:1062E40023209900377501F8EFF09FCE377501F838
:1062F400EFF0DFD1EFE01FCB377501F8EFF05FCAA5
:10630400377501F8EFF05FC5930754B32320F90004
:10631400377501F8EFF0DFCB377501F8EFF01FCFD9
:10632400EFE05FC81304F4BF23208900377501F838
:10633400EFF01FCA377501F8EFF05FCCEFE09FC6AE
:10634400377501F8EFF0DFCA1374F50F377501F8EC
:10635400EFF01FC5130504008320C101032481014C
:1063640083244101032901018329C100130101028E
:1063740067800000130101FF2326110023248100FC
:106384002322910023202101130905009384050091
:1063940093D52500379500001305854FEFF01FC8EE
:1063A400130400006352940293172400B307F90006
:1063B40083C5270003D50700EFF0DFD96314050276
:1063C400130414006FF01FFE130500008320C100A6
:1063D40003248100832441000329010013010101E6
:1063E40067800000130510006FF05FFE130101FFCA
:1063F400232611009305000013050010EFF09FD52C
:10640400630A0500130510008320C1001301010174
:10641400678000009305201337950000130585E677
:10642400EFF05FF5631A050E93052007379500001A
:10643400130585E61305854CEFF0DFF36312050EB3
:106444009305200013051010EFF0DFD0630605005C
:10645400130510006FF05FFB9305900013050034E3
:10646400EFF05FCF63060500130510006FF0DFF94E
:106474009305500913051034EFF0DFCD63060500D2
:10648400130510006FF05FF89305F000130520204A
:10649400EFF05FCC63060500130510006FF0DFF624
:1064A4009305600C13053020EFF0DFCA6306050086
:1064B400130510006FF05FF59305300013054020BD
:1064C400EFF05FC963060500130510006FF0DFF3FA
:1064D4009305000013055020EFF0DFC763060500A5
:1064E400130510006FF05FF29305100013054011BF
:1064F400EFF05FC663060500130510006FF0DFF0D0
:106504009305100013050010EFF0DFC4E30E05EE51
:10651400130510006FF05FEF130520006FF0DFEE3E
:10652400130530006FF05FEEB7470F009387072421
:10653400B3D5F502B7C70000938787FF3306F6008B
:10654400832706003385A5023305F500832706005B
:10655400B307F540E3DC07FE67800000032505046C
:1065640013751500678000001307050493070021C5
:106574002320F5048327070093F70701E39C07FE14
:1065840067800000130101FF2326110023248100EA
:106594001304050013050400EFF05FFCE31C05FE83
:1065A4008320C100032481001301010167800000DE
:1065B400130101FF23261100130700422320E504E1
:1065C400EFF05FFC8320C10013010101678000002C
:1065D4008327450093F70710E39C07FE67800000BC
:1065E400130101FF23261100130710302322E500B5
:1065F400EFF01FFE8320C10013010101678000003A
:10660400032585001375F50F678000000325C50079
:106614001375F50F3335A000678000000325C5000E
:106624001375F50F1335150067800000130101FF82
:106634002326110023248100232291001304050042
:1066440093840500377501F8EFF01FF2377701F8EE
:10665400B7170000938707B82320F700377501F8B0
:10666400EFF01FF8377501F8EFF05FFBEFE09F9351
:106674006300050213041000130504008320C10005
:106684000324810083244100130101016780000079
:106694009357840037170000130707B0B3E7E700E8
:1066A400377701F82320F700377501F8EFF05FF32F
:1066B400377501F8EFF09FF6EFE0DF8E6306050013
:1066C400130410006FF05FFB1374F40FB71700008E
:1066D400938707B03364F400B77701F823A08700E9
:1066E400377501F8EFF0DFEF377501F8EFF01FF3BE
:1066F400EFE05F8B63060500130410006FF0DFF713
:10670400B7170000938707B0B3E4F400B77701F834
:1067140023A09700377501F8EFF09FEC377501F867
:10672400EFF0DFEFEFE01F881304050063060500B8
:10673400130410006FF05FF4377501F8EFF05FE7B2
:106744006FF09FF3130101FF23261100232481001E
:10675400232291001304050093840500377501F882
:10676400EFF09FE0377701F8B7170000938707B57C
:106774002320F700377501F8EFF09FE6377501F82D
:10678400EFF0DFE9EFE01F8263000502130410005D
:10679400130504008320C1000324810083244100E5
:1067A400130101016780000093578400371700002C
:1067B400130707B0B3E7E700377701F82320F700A2
:1067C400377501F8EFF0DFE1377501F8EFF01FE5F9
:1067D400EFE04FFD63060500130410006FF05FFB4C
:1067E4001374F40FB7170000938707B03364F400F1
:1067F400B77701F823A08700377501F8EFF05FDE63
:10680400377501F8EFF09FE1EFE0CFF9630605007B
:10681400130410006FF0DFF7B7170000938707B079
:10682400B3E4F400B77701F823A09700377501F8B3
:10683400EFF01FDB377501F8EFF05FDEEFE08FF666
:106844001304050063060500130410006FF05FF4E1
:10685400377501F8EFF0DFD56FF09FF3130101FEF8
:10686400232E1100232C8100232A910023282101A7
:106874002326310193040500377501F8EFF0DFCECC
:10688400377901F837140000930704B82320F9007E
:10689400377501F8EFF0DFD4377501F8EFF01FD842
:1068A400EFE04FF093D78400930904B0B3E73701C6
:1068B4002320F900377501F8EFF09FD2377501F8FE
:1068C400EFF0DFD5EFE00FEE93F4F40FB3E434010F
:1068D40023209900377501F8EFF09FD0377501F840
:1068E400EFF0DFD3EFE00FEC377501F8EFF05FCC9A
:1068F400377501F8EFF05FC7930714B82320F90048
:10690400377501F8EFF0DFCD377501F8EFF01FD1DF
:10691400EFE04FE91304F4BF23208900377501F831
:10692400EFF01FCC377501F8EFF05FCEEFE08FE7A3
:10693400377501F8EFF0DFCC1374F50F377501F8F4
:10694400EFF01FC7130504008320C1010324810154
:1069540083244101032901018329C1001301010298
:1069640067800000130101FE232E1100232C8100F7
:10697400232A9100232821012326310193040500B1
:10698400377501F8EFF05FBE377901F8371400006E
:10699400930704B52320F900377501F8EFF05FC4BD
:1069A400377501F8EFF09FC7EFE0CFDF93D784008E
:1069B400930904B0B3E737012320F900377501F8D0
:1069C400EFF01FC2377501F8EFF05FC5EFE08FDD20
:1069D40093F4F40FB3E4340123209900377501F8DC
:1069E400EFF01FC0377501F8EFF05FC3EFE08FDB06
:1069F400377501F8EFF0DFBB377501F8EFF0DFB65C
:106A0400930714B52320F900377501F8EFF05FBD43
:106A1400377501F8EFF09FC0EFE0CFD81304F4BF4F
:106A240023208900377501F8EFF09FBB377501F813
:106A3400EFF0DFBDEFE00FD7377501F8EFF05FBC83
:106A44001374F50F377501F8EFF09FB613050400C2
:106A54008320C1010324810183244101032901010D
:106A64008329C1001301010267800000130101FFA3
:106A740023261100930500081305402CEFF01FBBDB
:106A8400630A0500130510008320C10013010101EE
:106A9400678000003706B0F8B7E5F5059385051063
:106AA40037C5000013050535EFF01FA89305000353
:106AB40013051033EFF09FB79305000D1305A040A5
:106AC400EFF05FC89305000D1305A044EFF09FC7D6
:106AD4009305000D1305A044EFF0DFC69305900362
